{
  "_format": "hh-sol-artifact-1",
  "contractName": "NFT",
  "sourceName": "contracts/NFT.sol",
  "abi": [
    {
      "inputs": [],
      "stateMutability": "nonpayable",
      "type": "constructor"
    },
    {
      "anonymous": false,
      "inputs": [
        {
          "indexed": true,
          "internalType": "address",
          "name": "owner",
          "type": "address"
        },
        {
          "indexed": true,
          "internalType": "address",
          "name": "approved",
          "type": "address"
        },
        {
          "indexed": true,
          "internalType": "uint256",
          "name": "tokenId",
          "type": "uint256"
        }
      ],
      "name": "Approval",
      "type": "event"
    },
    {
      "anonymous": false,
      "inputs": [
        {
          "indexed": true,
          "internalType": "address",
          "name": "owner",
          "type": "address"
        },
        {
          "indexed": true,
          "internalType": "address",
          "name": "operator",
          "type": "address"
        },
        {
          "indexed": false,
          "internalType": "bool",
          "name": "approved",
          "type": "bool"
        }
      ],
      "name": "ApprovalForAll",
      "type": "event"
    },
    {
      "anonymous": false,
      "inputs": [
        {
          "indexed": true,
          "internalType": "address",
          "name": "from",
          "type": "address"
        },
        {
          "indexed": true,
          "internalType": "address",
          "name": "to",
          "type": "address"
        },
        {
          "indexed": true,
          "internalType": "uint256",
          "name": "tokenId",
          "type": "uint256"
        }
      ],
      "name": "Transfer",
      "type": "event"
    },
    {
      "inputs": [
        {
          "internalType": "address",
          "name": "to",
          "type": "address"
        },
        {
          "internalType": "uint256",
          "name": "tokenId",
          "type": "uint256"
        }
      ],
      "name": "approve",
      "outputs": [],
      "stateMutability": "nonpayable",
      "type": "function"
    },
    {
      "inputs": [
        {
          "internalType": "address",
          "name": "owner",
          "type": "address"
        }
      ],
      "name": "balanceOf",
      "outputs": [
        {
          "internalType": "uint256",
          "name": "",
          "type": "uint256"
        }
      ],
      "stateMutability": "view",
      "type": "function"
    },
    {
      "inputs": [
        {
          "internalType": "string",
          "name": "tokenURI",
          "type": "string"
        },
        {
          "internalType": "uint256",
          "name": "price",
          "type": "uint256"
        },
        {
          "internalType": "uint256",
          "name": "auctionInterval",
          "type": "uint256"
        }
      ],
      "name": "createToken",
      "outputs": [
        {
          "internalType": "uint256",
          "name": "",
          "type": "uint256"
        }
      ],
      "stateMutability": "payable",
      "type": "function"
    },
    {
      "inputs": [
        {
          "internalType": "uint256",
          "name": "tokenId",
          "type": "uint256"
        }
      ],
      "name": "getApproved",
      "outputs": [
        {
          "internalType": "address",
          "name": "",
          "type": "address"
        }
      ],
      "stateMutability": "view",
      "type": "function"
    },
    {
      "inputs": [],
      "name": "getListingPrice",
      "outputs": [
        {
          "internalType": "uint256",
          "name": "",
          "type": "uint256"
        }
      ],
      "stateMutability": "view",
      "type": "function"
    },
    {
      "inputs": [],
      "name": "getMarketAddress",
      "outputs": [
        {
          "internalType": "address",
          "name": "",
          "type": "address"
        }
      ],
      "stateMutability": "view",
      "type": "function"
    },
    {
      "inputs": [
        {
          "internalType": "address",
          "name": "owner",
          "type": "address"
        },
        {
          "internalType": "address",
          "name": "operator",
          "type": "address"
        }
      ],
      "name": "isApprovedForAll",
      "outputs": [
        {
          "internalType": "bool",
          "name": "",
          "type": "bool"
        }
      ],
      "stateMutability": "view",
      "type": "function"
    },
    {
      "inputs": [],
      "name": "name",
      "outputs": [
        {
          "internalType": "string",
          "name": "",
          "type": "string"
        }
      ],
      "stateMutability": "view",
      "type": "function"
    },
    {
      "inputs": [
        {
          "internalType": "uint256",
          "name": "tokenId",
          "type": "uint256"
        }
      ],
      "name": "ownerOf",
      "outputs": [
        {
          "internalType": "address",
          "name": "",
          "type": "address"
        }
      ],
      "stateMutability": "view",
      "type": "function"
    },
    {
      "inputs": [
        {
          "internalType": "address",
          "name": "from",
          "type": "address"
        },
        {
          "internalType": "address",
          "name": "to",
          "type": "address"
        },
        {
          "internalType": "uint256",
          "name": "tokenId",
          "type": "uint256"
        }
      ],
      "name": "safeTransferFrom",
      "outputs": [],
      "stateMutability": "nonpayable",
      "type": "function"
    },
    {
      "inputs": [
        {
          "internalType": "address",
          "name": "from",
          "type": "address"
        },
        {
          "internalType": "address",
          "name": "to",
          "type": "address"
        },
        {
          "internalType": "uint256",
          "name": "tokenId",
          "type": "uint256"
        },
        {
          "internalType": "bytes",
          "name": "_data",
          "type": "bytes"
        }
      ],
      "name": "safeTransferFrom",
      "outputs": [],
      "stateMutability": "nonpayable",
      "type": "function"
    },
    {
      "inputs": [
        {
          "internalType": "address",
          "name": "operator",
          "type": "address"
        },
        {
          "internalType": "bool",
          "name": "approved",
          "type": "bool"
        }
      ],
      "name": "setApprovalForAll",
      "outputs": [],
      "stateMutability": "nonpayable",
      "type": "function"
    },
    {
      "inputs": [
        {
          "internalType": "bytes4",
          "name": "interfaceId",
          "type": "bytes4"
        }
      ],
      "name": "supportsInterface",
      "outputs": [
        {
          "internalType": "bool",
          "name": "",
          "type": "bool"
        }
      ],
      "stateMutability": "view",
      "type": "function"
    },
    {
      "inputs": [],
      "name": "symbol",
      "outputs": [
        {
          "internalType": "string",
          "name": "",
          "type": "string"
        }
      ],
      "stateMutability": "view",
      "type": "function"
    },
    {
      "inputs": [
        {
          "internalType": "uint256",
          "name": "tokenId",
          "type": "uint256"
        }
      ],
      "name": "tokenURI",
      "outputs": [
        {
          "internalType": "string",
          "name": "",
          "type": "string"
        }
      ],
      "stateMutability": "view",
      "type": "function"
    },
    {
      "inputs": [
        {
          "internalType": "address",
          "name": "from",
          "type": "address"
        },
        {
          "internalType": "address",
          "name": "to",
          "type": "address"
        },
        {
          "internalType": "uint256",
          "name": "tokenId",
          "type": "uint256"
        }
      ],
      "name": "transferFrom",
      "outputs": [],
      "stateMutability": "nonpayable",
      "type": "function"
    }
  ],
  "bytecode": "0x60806040523480156200001157600080fd5b506040518060400160405280601081526020017f4d657461766572736520546f6b656e73000000000000000000000000000000008152506040518060400160405280600481526020017f4d4554540000000000000000000000000000000000000000000000000000000081525081600090805190602001906200009692919062000239565b508060019080519060200190620000af92919062000239565b5050506001600781905550604051620000c890620002ca565b604051809103906000f080158015620000e5573d6000803e3d6000fd5b50600a60006101000a81548173ffffffffffffffffffffffffffffffffffffffff021916908373ffffffffffffffffffffffffffffffffffffffff160217905550600a60009054906101000a900473ffffffffffffffffffffffffffffffffffffffff16600960006101000a81548173ffffffffffffffffffffffffffffffffffffffff021916908373ffffffffffffffffffffffffffffffffffffffff160217905550600a60009054906101000a900473ffffffffffffffffffffffffffffffffffffffff1673ffffffffffffffffffffffffffffffffffffffff166312e855856040518163ffffffff1660e01b815260040160206040518083038186803b158015620001f257600080fd5b505afa15801562000207573d6000803e3d6000fd5b505050506040513d601f19601f820116820180604052508101906200022d91906200030e565b600b81905550620003c3565b828054620002479062000344565b90600052602060002090601f0160209004810192826200026b5760008555620002b7565b82601f106200028657805160ff1916838001178555620002b7565b82800160010185558215620002b7579182015b82811115620002b657825182559160200191906001019062000299565b5b509050620002c69190620002d8565b5090565b613c8280620031c783390190565b5b80821115620002f3576000816000905550600101620002d9565b5090565b6000815190506200030881620003a9565b92915050565b6000602082840312156200032157600080fd5b60006200033184828501620002f7565b91505092915050565b6000819050919050565b600060028204905060018216806200035d57607f821691505b602082108114156200037457620003736200037a565b5b50919050565b7f4e487b7100000000000000000000000000000000000000000000000000000000600052602260045260246000fd5b620003b4816200033a565b8114620003c057600080fd5b50565b612df480620003d36000396000f3fe6080604052600436106100f35760003560e01c806370a082311161008a578063bec2a7c511610059578063bec2a7c51461033a578063c87b56dd1461036a578063e7334fe5146103a7578063e985e9c5146103d2576100f3565b806370a082311461028057806395d89b41146102bd578063a22cb465146102e8578063b88d4fde14610311576100f3565b806312e85585116100c657806312e85585146101c657806323b872dd146101f157806342842e0e1461021a5780636352211e14610243576100f3565b806301ffc9a7146100f857806306fdde0314610135578063081812fc14610160578063095ea7b31461019d575b600080fd5b34801561010457600080fd5b5061011f600480360381019061011a9190611de7565b61040f565b60405161012c91906122a7565b60405180910390f35b34801561014157600080fd5b5061014a6104f1565b60405161015791906122c2565b60405180910390f35b34801561016c57600080fd5b5061018760048036038101906101829190611ea0565b610583565b60405161019491906121ed565b60405180910390f35b3480156101a957600080fd5b506101c460048036038101906101bf9190611dab565b610608565b005b3480156101d257600080fd5b506101db610720565b6040516101e891906124e4565b60405180910390f35b3480156101fd57600080fd5b5061021860048036038101906102139190611ca5565b61072a565b005b34801561022657600080fd5b50610241600480360381019061023c9190611ca5565b61078a565b005b34801561024f57600080fd5b5061026a60048036038101906102659190611ea0565b6107aa565b60405161027791906121ed565b60405180910390f35b34801561028c57600080fd5b506102a760048036038101906102a29190611c40565b61085c565b6040516102b491906124e4565b60405180910390f35b3480156102c957600080fd5b506102d2610914565b6040516102df91906122c2565b60405180910390f35b3480156102f457600080fd5b5061030f600480360381019061030a9190611d6f565b6109a6565b005b34801561031d57600080fd5b5061033860048036038101906103339190611cf4565b610b27565b005b610354600480360381019061034f9190611e39565b610b89565b60405161036191906124e4565b60405180910390f35b34801561037657600080fd5b50610391600480360381019061038c9190611ea0565b610ca7565b60405161039e91906122c2565b60405180910390f35b3480156103b357600080fd5b506103bc610df9565b6040516103c991906121ed565b60405180910390f35b3480156103de57600080fd5b506103f960048036038101906103f49190611c69565b610e23565b60405161040691906122a7565b60405180910390f35b60007f80ac58cd000000000000000000000000000000000000000000000000000000007bffffffffffffffffffffffffffffffffffffffffffffffffffffffff1916827bffffffffffffffffffffffffffffffffffffffffffffffffffffffff191614806104da57507f5b5e139f000000000000000000000000000000000000000000000000000000007bffffffffffffffffffffffffffffffffffffffffffffffffffffffff1916827bffffffffffffffffffffffffffffffffffffffffffffffffffffffff1916145b806104ea57506104e982610eb7565b5b9050919050565b6060600080546105009061273a565b80601f016020809104026020016040519081016040528092919081815260200182805461052c9061273a565b80156105795780601f1061054e57610100808354040283529160200191610579565b820191906000526020600020905b81548152906001019060200180831161055c57829003601f168201915b5050505050905090565b600061058e82610f21565b6105cd576040517f08c379a00000000000000000000000000000000000000000000000000000000081526004016105c490612444565b60405180910390fd5b6004600083815260200190815260200160002060009054906101000a900473ffffffffffffffffffffffffffffffffffffffff169050919050565b6000610613826107aa565b90508073ffffffffffffffffffffffffffffffffffffffff168373ffffffffffffffffffffffffffffffffffffffff161415610684576040517f08c379a000000000000000000000000000000000000000000000000000000000815260040161067b906124a4565b60405180910390fd5b8073ffffffffffffffffffffffffffffffffffffffff166106a3610f8d565b73ffffffffffffffffffffffffffffffffffffffff1614806106d257506106d1816106cc610f8d565b610e23565b5b610711576040517f08c379a000000000000000000000000000000000000000000000000000000000815260040161070890612384565b60405180910390fd5b61071b8383610f95565b505050565b6000600b54905090565b61073b610735610f8d565b8261104e565b61077a576040517f08c379a0000000000000000000000000000000000000000000000000000000008152600401610771906124c4565b60405180910390fd5b61078583838361112c565b505050565b6107a583838360405180602001604052806000815250610b27565b505050565b6000806002600084815260200190815260200160002060009054906101000a900473ffffffffffffffffffffffffffffffffffffffff169050600073ffffffffffffffffffffffffffffffffffffffff168173ffffffffffffffffffffffffffffffffffffffff161415610853576040517f08c379a000000000000000000000000000000000000000000000000000000000815260040161084a906123c4565b60405180910390fd5b80915050919050565b60008073ffffffffffffffffffffffffffffffffffffffff168273ffffffffffffffffffffffffffffffffffffffff1614156108cd576040517f08c379a00000000000000000000000000000000000000000000000000000000081526004016108c4906123a4565b60405180910390fd5b600360008373ffffffffffffffffffffffffffffffffffffffff1673ffffffffffffffffffffffffffffffffffffffff168152602001908152602001600020549050919050565b6060600180546109239061273a565b80601f016020809104026020016040519081016040528092919081815260200182805461094f9061273a565b801561099c5780601f106109715761010080835404028352916020019161099c565b820191906000526020600020905b81548152906001019060200180831161097f57829003601f168201915b5050505050905090565b6109ae610f8d565b73ffffffffffffffffffffffffffffffffffffffff168273ffffffffffffffffffffffffffffffffffffffff161415610a1c576040517f08c379a0000000000000000000000000000000000000000000000000000000008152600401610a1390612344565b60405180910390fd5b8060056000610a29610f8d565b73ffffffffffffffffffffffffffffffffffffffff1673ffffffffffffffffffffffffffffffffffffffff16815260200190815260200160002060008473ffffffffffffffffffffffffffffffffffffffff1673ffffffffffffffffffffffffffffffffffffffff16815260200190815260200160002060006101000a81548160ff0219169083151502179055508173ffffffffffffffffffffffffffffffffffffffff16610ad6610f8d565b73ffffffffffffffffffffffffffffffffffffffff167f17307eab39ab6107e8899845ad3d59bd9653f200f220920489ca2b5937696c3183604051610b1b91906122a7565b60405180910390a35050565b610b38610b32610f8d565b8361104e565b610b77576040517f08c379a0000000000000000000000000000000000000000000000000000000008152600401610b6e906124c4565b60405180910390fd5b610b8384848484611388565b50505050565b6000610b9560086113e4565b6000610ba160086113fa565b9050610bad3382611408565b610bb781866115d6565b610be4600960009054906101000a900473ffffffffffffffffffffffffffffffffffffffff1660016109a6565b600a60009054906101000a900473ffffffffffffffffffffffffffffffffffffffff1673ffffffffffffffffffffffffffffffffffffffff1663b8ba1e6e3433600960009054906101000a900473ffffffffffffffffffffffffffffffffffffffff168589896040518763ffffffff1660e01b8152600401610c6a959493929190612254565b6000604051808303818588803b158015610c8357600080fd5b505af1158015610c97573d6000803e3d6000fd5b5050505050809150509392505050565b6060610cb282610f21565b610cf1576040517f08c379a0000000000000000000000000000000000000000000000000000000008152600401610ce890612424565b60405180910390fd5b6000600660008481526020019081526020016000208054610d119061273a565b80601f0160208091040260200160405190810160405280929190818152602001828054610d3d9061273a565b8015610d8a5780601f10610d5f57610100808354040283529160200191610d8a565b820191906000526020600020905b815481529060010190602001808311610d6d57829003601f168201915b505050505090506000610d9b61164a565b9050600081511415610db1578192505050610df4565b600082511115610de6578082604051602001610dce9291906121c9565b60405160208183030381529060405292505050610df4565b610def84611661565b925050505b919050565b6000600a60009054906101000a900473ffffffffffffffffffffffffffffffffffffffff16905090565b6000600560008473ffffffffffffffffffffffffffffffffffffffff1673ffffffffffffffffffffffffffffffffffffffff16815260200190815260200160002060008373ffffffffffffffffffffffffffffffffffffffff1673ffffffffffffffffffffffffffffffffffffffff16815260200190815260200160002060009054906101000a900460ff16905092915050565b60007f01ffc9a7000000000000000000000000000000000000000000000000000000007bffffffffffffffffffffffffffffffffffffffffffffffffffffffff1916827bffffffffffffffffffffffffffffffffffffffffffffffffffffffff1916149050919050565b60008073ffffffffffffffffffffffffffffffffffffffff166002600084815260200190815260200160002060009054906101000a900473ffffffffffffffffffffffffffffffffffffffff1673ffffffffffffffffffffffffffffffffffffffff1614159050919050565b600033905090565b816004600083815260200190815260200160002060006101000a81548173ffffffffffffffffffffffffffffffffffffffff021916908373ffffffffffffffffffffffffffffffffffffffff160217905550808273ffffffffffffffffffffffffffffffffffffffff16611008836107aa565b73ffffffffffffffffffffffffffffffffffffffff167f8c5be1e5ebec7d5bd14f71427d1e84f3dd0314c0f7b2291e5b200ac8c7c3b92560405160405180910390a45050565b600061105982610f21565b611098576040517f08c379a000000000000000000000000000000000000000000000000000000000815260040161108f90612364565b60405180910390fd5b60006110a3836107aa565b90508073ffffffffffffffffffffffffffffffffffffffff168473ffffffffffffffffffffffffffffffffffffffff16148061111257508373ffffffffffffffffffffffffffffffffffffffff166110fa84610583565b73ffffffffffffffffffffffffffffffffffffffff16145b8061112357506111228185610e23565b5b91505092915050565b8273ffffffffffffffffffffffffffffffffffffffff1661114c826107aa565b73ffffffffffffffffffffffffffffffffffffffff16146111a2576040517f08c379a000000000000000000000000000000000000000000000000000000000815260040161119990612464565b60405180910390fd5b600073ffffffffffffffffffffffffffffffffffffffff168273ffffffffffffffffffffffffffffffffffffffff161415611212576040517f08c379a000000000000000000000000000000000000000000000000000000000815260040161120990612324565b60405180910390fd5b61121d838383611708565b611228600082610f95565b6001600360008573ffffffffffffffffffffffffffffffffffffffff1673ffffffffffffffffffffffffffffffffffffffff16815260200190815260200160002060008282546112789190612650565b925050819055506001600360008473ffffffffffffffffffffffffffffffffffffffff1673ffffffffffffffffffffffffffffffffffffffff16815260200190815260200160002060008282546112cf91906125c9565b92505081905550816002600083815260200190815260200160002060006101000a81548173ffffffffffffffffffffffffffffffffffffffff021916908373ffffffffffffffffffffffffffffffffffffffff160217905550808273ffffffffffffffffffffffffffffffffffffffff168473ffffffffffffffffffffffffffffffffffffffff167fddf252ad1be2c89b69c2b068fc378daa952ba7f163c4a11628f55a4df523b3ef60405160405180910390a4505050565b61139384848461112c565b61139f8484848461170d565b6113de576040517f08c379a00000000000000000000000000000000000000000000000000000000081526004016113d5906122e4565b60405180910390fd5b50505050565b6001816000016000828254019250508190555050565b600081600001549050919050565b600073ffffffffffffffffffffffffffffffffffffffff168273ffffffffffffffffffffffffffffffffffffffff161415611478576040517f08c379a000000000000000000000000000000000000000000000000000000000815260040161146f90612404565b60405180910390fd5b61148181610f21565b156114c1576040517f08c379a00000000000000000000000000000000000000000000000000000000081526004016114b890612304565b60405180910390fd5b6114cd60008383611708565b6001600360008473ffffffffffffffffffffffffffffffffffffffff1673ffffffffffffffffffffffffffffffffffffffff168152602001908152602001600020600082825461151d91906125c9565b92505081905550816002600083815260200190815260200160002060006101000a81548173ffffffffffffffffffffffffffffffffffffffff021916908373ffffffffffffffffffffffffffffffffffffffff160217905550808273ffffffffffffffffffffffffffffffffffffffff16600073ffffffffffffffffffffffffffffffffffffffff167fddf252ad1be2c89b69c2b068fc378daa952ba7f163c4a11628f55a4df523b3ef60405160405180910390a45050565b6115df82610f21565b61161e576040517f08c379a0000000000000000000000000000000000000000000000000000000008152600401611615906123e4565b60405180910390fd5b80600660008481526020019081526020016000209080519060200190611645929190611a64565b505050565b606060405180602001604052806000815250905090565b606061166c82610f21565b6116ab576040517f08c379a00000000000000000000000000000000000000000000000000000000081526004016116a290612484565b60405180910390fd5b60006116b561164a565b905060008151116116d55760405180602001604052806000815250611700565b806116df846118a4565b6040516020016116f09291906121c9565b6040516020818303038152906040525b915050919050565b505050565b600061172e8473ffffffffffffffffffffffffffffffffffffffff16611a51565b15611897578373ffffffffffffffffffffffffffffffffffffffff1663150b7a02611757610f8d565b8786866040518563ffffffff1660e01b81526004016117799493929190612208565b602060405180830381600087803b15801561179357600080fd5b505af19250505080156117c457506040513d601f19601f820116820180604052508101906117c19190611e10565b60015b611847573d80600081146117f4576040519150601f19603f3d011682016040523d82523d6000602084013e6117f9565b606091505b5060008151141561183f576040517f08c379a0000000000000000000000000000000000000000000000000000000008152600401611836906122e4565b60405180910390fd5b805181602001fd5b63150b7a0260e01b7bffffffffffffffffffffffffffffffffffffffffffffffffffffffff1916817bffffffffffffffffffffffffffffffffffffffffffffffffffffffff19161491505061189c565b600190505b949350505050565b606060008214156118ec576040518060400160405280600181526020017f30000000000000000000000000000000000000000000000000000000000000008152509050611a4c565b600082905060005b6000821461191e5780806119079061279d565b915050600a82611917919061261f565b91506118f4565b60008167ffffffffffffffff811115611960577f4e487b7100000000000000000000000000000000000000000000000000000000600052604160045260246000fd5b6040519080825280601f01601f1916602001820160405280156119925781602001600182028036833780820191505090505b5090505b60008514611a45576001826119ab9190612650565b9150600a856119ba91906127e6565b60306119c691906125c9565b60f81b818381518110611a02577f4e487b7100000000000000000000000000000000000000000000000000000000600052603260045260246000fd5b60200101907effffffffffffffffffffffffffffffffffffffffffffffffffffffffffffff1916908160001a905350600a85611a3e919061261f565b9450611996565b8093505050505b919050565b600080823b905060008111915050919050565b828054611a709061273a565b90600052602060002090601f016020900481019282611a925760008555611ad9565b82601f10611aab57805160ff1916838001178555611ad9565b82800160010185558215611ad9579182015b82811115611ad8578251825591602001919060010190611abd565b5b509050611ae69190611aea565b5090565b5b80821115611b03576000816000905550600101611aeb565b5090565b6000611b1a611b1584612524565b6124ff565b905082815260208101848484011115611b3257600080fd5b611b3d8482856126f8565b509392505050565b6000611b58611b5384612555565b6124ff565b905082815260208101848484011115611b7057600080fd5b611b7b8482856126f8565b509392505050565b600081359050611b9281612d62565b92915050565b600081359050611ba781612d79565b92915050565b600081359050611bbc81612d90565b92915050565b600081519050611bd181612d90565b92915050565b600082601f830112611be857600080fd5b8135611bf8848260208601611b07565b91505092915050565b600082601f830112611c1257600080fd5b8135611c22848260208601611b45565b91505092915050565b600081359050611c3a81612da7565b92915050565b600060208284031215611c5257600080fd5b6000611c6084828501611b83565b91505092915050565b60008060408385031215611c7c57600080fd5b6000611c8a85828601611b83565b9250506020611c9b85828601611b83565b9150509250929050565b600080600060608486031215611cba57600080fd5b6000611cc886828701611b83565b9350506020611cd986828701611b83565b9250506040611cea86828701611c2b565b9150509250925092565b60008060008060808587031215611d0a57600080fd5b6000611d1887828801611b83565b9450506020611d2987828801611b83565b9350506040611d3a87828801611c2b565b925050606085013567ffffffffffffffff811115611d5757600080fd5b611d6387828801611bd7565b91505092959194509250565b60008060408385031215611d8257600080fd5b6000611d9085828601611b83565b9250506020611da185828601611b98565b9150509250929050565b60008060408385031215611dbe57600080fd5b6000611dcc85828601611b83565b9250506020611ddd85828601611c2b565b9150509250929050565b600060208284031215611df957600080fd5b6000611e0784828501611bad565b91505092915050565b600060208284031215611e2257600080fd5b6000611e3084828501611bc2565b91505092915050565b600080600060608486031215611e4e57600080fd5b600084013567ffffffffffffffff811115611e6857600080fd5b611e7486828701611c01565b9350506020611e8586828701611c2b565b9250506040611e9686828701611c2b565b9150509250925092565b600060208284031215611eb257600080fd5b6000611ec084828501611c2b565b91505092915050565b611ed281612684565b82525050565b611ee181612696565b82525050565b6000611ef282612586565b611efc818561259c565b9350611f0c818560208601612707565b611f15816128d3565b840191505092915050565b6000611f2b82612591565b611f3581856125ad565b9350611f45818560208601612707565b611f4e816128d3565b840191505092915050565b6000611f6482612591565b611f6e81856125be565b9350611f7e818560208601612707565b80840191505092915050565b6000611f976032836125ad565b9150611fa2826128e4565b604082019050919050565b6000611fba601c836125ad565b9150611fc582612933565b602082019050919050565b6000611fdd6024836125ad565b9150611fe88261295c565b604082019050919050565b60006120006019836125ad565b915061200b826129ab565b602082019050919050565b6000612023602c836125ad565b915061202e826129d4565b604082019050919050565b60006120466038836125ad565b915061205182612a23565b604082019050919050565b6000612069602a836125ad565b915061207482612a72565b604082019050919050565b600061208c6029836125ad565b915061209782612ac1565b604082019050919050565b60006120af602e836125ad565b91506120ba82612b10565b604082019050919050565b60006120d26020836125ad565b91506120dd82612b5f565b602082019050919050565b60006120f56031836125ad565b915061210082612b88565b604082019050919050565b6000612118602c836125ad565b915061212382612bd7565b604082019050919050565b600061213b6029836125ad565b915061214682612c26565b604082019050919050565b600061215e602f836125ad565b915061216982612c75565b604082019050919050565b60006121816021836125ad565b915061218c82612cc4565b604082019050919050565b60006121a46031836125ad565b91506121af82612d13565b604082019050919050565b6121c3816126ee565b82525050565b60006121d58285611f59565b91506121e18284611f59565b91508190509392505050565b60006020820190506122026000830184611ec9565b92915050565b600060808201905061221d6000830187611ec9565b61222a6020830186611ec9565b61223760408301856121ba565b81810360608301526122498184611ee7565b905095945050505050565b600060a0820190506122696000830188611ec9565b6122766020830187611ec9565b61228360408301866121ba565b61229060608301856121ba565b61229d60808301846121ba565b9695505050505050565b60006020820190506122bc6000830184611ed8565b92915050565b600060208201905081810360008301526122dc8184611f20565b905092915050565b600060208201905081810360008301526122fd81611f8a565b9050919050565b6000602082019050818103600083015261231d81611fad565b9050919050565b6000602082019050818103600083015261233d81611fd0565b9050919050565b6000602082019050818103600083015261235d81611ff3565b9050919050565b6000602082019050818103600083015261237d81612016565b9050919050565b6000602082019050818103600083015261239d81612039565b9050919050565b600060208201905081810360008301526123bd8161205c565b9050919050565b600060208201905081810360008301526123dd8161207f565b9050919050565b600060208201905081810360008301526123fd816120a2565b9050919050565b6000602082019050818103600083015261241d816120c5565b9050919050565b6000602082019050818103600083015261243d816120e8565b9050919050565b6000602082019050818103600083015261245d8161210b565b9050919050565b6000602082019050818103600083015261247d8161212e565b9050919050565b6000602082019050818103600083015261249d81612151565b9050919050565b600060208201905081810360008301526124bd81612174565b9050919050565b600060208201905081810360008301526124dd81612197565b9050919050565b60006020820190506124f960008301846121ba565b92915050565b600061250961251a565b9050612515828261276c565b919050565b6000604051905090565b600067ffffffffffffffff82111561253f5761253e6128a4565b5b612548826128d3565b9050602081019050919050565b600067ffffffffffffffff8211156125705761256f6128a4565b5b612579826128d3565b9050602081019050919050565b600081519050919050565b600081519050919050565b600082825260208201905092915050565b600082825260208201905092915050565b600081905092915050565b60006125d4826126ee565b91506125df836126ee565b9250827fffffffffffffffffffffffffffffffffffffffffffffffffffffffffffffffff0382111561261457612613612817565b5b828201905092915050565b600061262a826126ee565b9150612635836126ee565b92508261264557612644612846565b5b828204905092915050565b600061265b826126ee565b9150612666836126ee565b92508282101561267957612678612817565b5b828203905092915050565b600061268f826126ce565b9050919050565b60008115159050919050565b60007fffffffff0000000000000000000000000000000000000000000000000000000082169050919050565b600073ffffffffffffffffffffffffffffffffffffffff82169050919050565b6000819050919050565b82818337600083830152505050565b60005b8381101561272557808201518184015260208101905061270a565b83811115612734576000848401525b50505050565b6000600282049050600182168061275257607f821691505b6020821081141561276657612765612875565b5b50919050565b612775826128d3565b810181811067ffffffffffffffff82111715612794576127936128a4565b5b80604052505050565b60006127a8826126ee565b91507fffffffffffffffffffffffffffffffffffffffffffffffffffffffffffffffff8214156127db576127da612817565b5b600182019050919050565b60006127f1826126ee565b91506127fc836126ee565b92508261280c5761280b612846565b5b828206905092915050565b7f4e487b7100000000000000000000000000000000000000000000000000000000600052601160045260246000fd5b7f4e487b7100000000000000000000000000000000000000000000000000000000600052601260045260246000fd5b7f4e487b7100000000000000000000000000000000000000000000000000000000600052602260045260246000fd5b7f4e487b7100000000000000000000000000000000000000000000000000000000600052604160045260246000fd5b6000601f19601f8301169050919050565b7f4552433732313a207472616e7366657220746f206e6f6e20455243373231526560008201527f63656976657220696d706c656d656e7465720000000000000000000000000000602082015250565b7f4552433732313a20746f6b656e20616c7265616479206d696e74656400000000600082015250565b7f4552433732313a207472616e7366657220746f20746865207a65726f2061646460008201527f7265737300000000000000000000000000000000000000000000000000000000602082015250565b7f4552433732313a20617070726f766520746f2063616c6c657200000000000000600082015250565b7f4552433732313a206f70657261746f7220717565727920666f72206e6f6e657860008201527f697374656e7420746f6b656e0000000000000000000000000000000000000000602082015250565b7f4552433732313a20617070726f76652063616c6c6572206973206e6f74206f7760008201527f6e6572206e6f7220617070726f76656420666f7220616c6c0000000000000000602082015250565b7f4552433732313a2062616c616e636520717565727920666f7220746865207a6560008201527f726f206164647265737300000000000000000000000000000000000000000000602082015250565b7f4552433732313a206f776e657220717565727920666f72206e6f6e657869737460008201527f656e7420746f6b656e0000000000000000000000000000000000000000000000602082015250565b7f45524337323155524953746f726167653a2055524920736574206f66206e6f6e60008201527f6578697374656e7420746f6b656e000000000000000000000000000000000000602082015250565b7f4552433732313a206d696e7420746f20746865207a65726f2061646472657373600082015250565b7f45524337323155524953746f726167653a2055524920717565727920666f722060008201527f6e6f6e6578697374656e7420746f6b656e000000000000000000000000000000602082015250565b7f4552433732313a20617070726f76656420717565727920666f72206e6f6e657860008201527f697374656e7420746f6b656e0000000000000000000000000000000000000000602082015250565b7f4552433732313a207472616e73666572206f6620746f6b656e2074686174206960008201527f73206e6f74206f776e0000000000000000000000000000000000000000000000602082015250565b7f4552433732314d657461646174613a2055524920717565727920666f72206e6f60008201527f6e6578697374656e7420746f6b656e0000000000000000000000000000000000602082015250565b7f4552433732313a20617070726f76616c20746f2063757272656e74206f776e6560008201527f7200000000000000000000000000000000000000000000000000000000000000602082015250565b7f4552433732313a207472616e736665722063616c6c6572206973206e6f74206f60008201527f776e6572206e6f7220617070726f766564000000000000000000000000000000602082015250565b612d6b81612684565b8114612d7657600080fd5b50565b612d8281612696565b8114612d8d57600080fd5b50565b612d99816126a2565b8114612da457600080fd5b50565b612db0816126ee565b8114612dbb57600080fd5b5056fea2646970667358221220c7e08e4713192ddd43a90fb44f17ea3147de4840cf0fb7bce61e36f7591f472564736f6c6343000804003360806040526658d15e1762800060045534801561001b57600080fd5b50600160008190555033600360006101000a81548173ffffffffffffffffffffffffffffffffffffffff021916908373ffffffffffffffffffffffffffffffffffffffff160217905550600360009054906101000a900473ffffffffffffffffffffffffffffffffffffffff1660066000600381106100c3577f4e487b7100000000000000000000000000000000000000000000000000000000600052603260045260246000fd5b0160006101000a81548173ffffffffffffffffffffffffffffffffffffffff021916908373ffffffffffffffffffffffffffffffffffffffff160217905550613b71806101116000396000f3fe6080604052600436106100f35760003560e01c80637dc5dfcf1161008a578063da235b2211610059578063da235b22146102b4578063ec16b94a146102df578063f064c32e146102fb578063f5537ede14610326576100f3565b80637dc5dfcf1461022657806397598cc314610251578063b8ba1e6e1461027c578063c23b139e14610298576100f3565b806331ae450b116100c657806331ae450b146101865780633aecd0e3146101b15780633e52f34c146101ee5780637b321b011461020a576100f3565b80630f08efe0146100f857806312e8558514610123578063142e8e251461014e578063305a67a81461016a575b600080fd5b34801561010457600080fd5b5061010d610342565b60405161011a9190613440565b60405180910390f35b34801561012f57600080fd5b5061013861071c565b6040516101459190613632565b60405180910390f35b61016860048036038101906101639190612e91565b610726565b005b610184600480360381019061017f9190612e3f565b6108d9565b005b34801561019257600080fd5b5061019b610c25565b6040516101a89190613425565b60405180910390f35b3480156101bd57600080fd5b506101d860048036038101906101d39190612ceb565b610ca6565b6040516101e59190613632565b60405180910390f35b61020860048036038101906102039190612e3f565b610d5a565b005b610224600480360381019061021f9190612dda565b6110c9565b005b34801561023257600080fd5b5061023b6113cd565b6040516102489190613440565b60405180910390f35b34801561025d57600080fd5b5061026661182b565b6040516102739190613440565b60405180910390f35b61029660048036038101906102919190612d63565b611b6a565b005b6102b260048036038101906102ad9190612dda565b611f3f565b005b3480156102c057600080fd5b506102c961227c565b6040516102d69190613632565b60405180910390f35b6102f960048036038101906102f49190612ecd565b612284565b005b34801561030757600080fd5b50610310612505565b60405161031d9190613440565b60405180910390f35b610340600480360381019061033b9190612d14565b612963565b005b606060006103506001612aaf565b9050600061035e6002612aaf565b6103686001612aaf565b6103729190613725565b90506000808267ffffffffffffffff8111156103b7577f4e487b7100000000000000000000000000000000000000000000000000000000600052604160045260246000fd5b6040519080825280602002602001820160405280156103f057816020015b6103dd612b98565b8152602001906001900390816103d55790505b50905060005b8481101561071157600073ffffffffffffffffffffffffffffffffffffffff166009600060018461042791906136cf565b815260200190815260200160002060040160009054906101000a900473ffffffffffffffffffffffffffffffffffffffff1673ffffffffffffffffffffffffffffffffffffffff1614156106fe5760006009600060018461048891906136cf565b815260200190815260200160002060000154905060006009600083815260200190815260200160002090508060405180610160016040529081600082015481526020016001820160009054906101000a900473ffffffffffffffffffffffffffffffffffffffff1673ffffffffffffffffffffffffffffffffffffffff1673ffffffffffffffffffffffffffffffffffffffff168152602001600282015481526020016003820160009054906101000a900473ffffffffffffffffffffffffffffffffffffffff1673ffffffffffffffffffffffffffffffffffffffff1673ffffffffffffffffffffffffffffffffffffffff1681526020016004820160009054906101000a900473ffffffffffffffffffffffffffffffffffffffff1673ffffffffffffffffffffffffffffffffffffffff1673ffffffffffffffffffffffffffffffffffffffff168152602001600582015481526020016006820160009054906101000a900460ff161515151581526020016006820160019054906101000a900460ff16151515158152602001600782015481526020016008820154815260200160098201604051806060016040529081600082015481526020016001820160009054906101000a900473ffffffffffffffffffffffffffffffffffffffff1673ffffffffffffffffffffffffffffffffffffffff1673ffffffffffffffffffffffffffffffffffffffff168152602001600282015481525050815250508486815181106106e1577f4e487b7100000000000000000000000000000000000000000000000000000000600052603260045260246000fd5b60200260200101819052506001856106f991906136cf565b945050505b8080610709906137e6565b9150506103f6565b508094505050505090565b6000600454905090565b6002600054141561076c576040517f08c379a0000000000000000000000000000000000000000000000000000000008152600401610763906135d2565b60405180910390fd5b6002600081905550600282106107b7576040517f08c379a00000000000000000000000000000000000000000000000000000000081526004016107ae906134d2565b60405180910390fd5b600360009054906101000a900473ffffffffffffffffffffffffffffffffffffffff1673ffffffffffffffffffffffffffffffffffffffff163373ffffffffffffffffffffffffffffffffffffffff1614610847576040517f08c379a000000000000000000000000000000000000000000000000000000000815260040161083e90613512565b60405180910390fd5b80600660018461085791906136cf565b6003811061088e577f4e487b7100000000000000000000000000000000000000000000000000000000600052603260045260246000fd5b0160006101000a81548173ffffffffffffffffffffffffffffffffffffffff021916908373ffffffffffffffffffffffffffffffffffffffff16021790555060016000819055505050565b6002600054141561091f576040517f08c379a0000000000000000000000000000000000000000000000000000000008152600401610916906135d2565b60405180910390fd5b60026000819055503373ffffffffffffffffffffffffffffffffffffffff166009600083815260200190815260200160002060030160009054906101000a900473ffffffffffffffffffffffffffffffffffffffff1673ffffffffffffffffffffffffffffffffffffffff161480610a1e57503373ffffffffffffffffffffffffffffffffffffffff1660066000600381106109e4577f4e487b7100000000000000000000000000000000000000000000000000000000600052603260045260246000fd5b0160009054906101000a900473ffffffffffffffffffffffffffffffffffffffff1673ffffffffffffffffffffffffffffffffffffffff16145b80610ab057503373ffffffffffffffffffffffffffffffffffffffff166006600160038110610a76577f4e487b7100000000000000000000000000000000000000000000000000000000600052603260045260246000fd5b0160009054906101000a900473ffffffffffffffffffffffffffffffffffffffff1673ffffffffffffffffffffffffffffffffffffffff16145b80610b4257503373ffffffffffffffffffffffffffffffffffffffff166006600260038110610b08577f4e487b7100000000000000000000000000000000000000000000000000000000600052603260045260246000fd5b0160009054906101000a900473ffffffffffffffffffffffffffffffffffffffff1673ffffffffffffffffffffffffffffffffffffffff16145b610b81576040517f08c379a0000000000000000000000000000000000000000000000000000000008152600401610b7890613572565b60405180910390fd5b600015156009600083815260200190815260200160002060060160019054906101000a900460ff16151514610beb576040517f08c379a0000000000000000000000000000000000000000000000000000000008152600401610be2906134b2565b60405180910390fd5b60016009600083815260200190815260200160002060060160006101000a81548160ff021916908315150217905550600160008190555050565b610c2d612c3e565b6006600380602002604051908101604052809291908260038015610c9c576020028201915b8160009054906101000a900473ffffffffffffffffffffffffffffffffffffffff1673ffffffffffffffffffffffffffffffffffffffff1681526020019060010190808311610c52575b5050505050905090565b6000600560009054906101000a900473ffffffffffffffffffffffffffffffffffffffff1673ffffffffffffffffffffffffffffffffffffffff166370a08231836040518263ffffffff1660e01b8152600401610d03919061338e565b60206040518083038186803b158015610d1b57600080fd5b505afa158015610d2f573d6000803e3d6000fd5b505050506040513d601f19601f82011682018060405250810190610d539190612e68565b9050919050565b60026000541415610da0576040517f08c379a0000000000000000000000000000000000000000000000000000000008152600401610d97906135d2565b60405180910390fd5b6002600081905550600060096000838152602001908152602001600020600901600201549050803411610e08576040517f08c379a0000000000000000000000000000000000000000000000000000000008152600401610dff90613532565b60405180910390fd5b600042905060096000848152602001908152602001600020600701548110610e65576040517f08c379a0000000000000000000000000000000000000000000000000000000008152600401610e5c90613552565b60405180910390fd5b60008234610e739190613725565b90506009600085815260200190815260200160002060090160010160009054906101000a900473ffffffffffffffffffffffffffffffffffffffff1673ffffffffffffffffffffffffffffffffffffffff166108fc60096000878152602001908152602001600020600901600201549081150290604051600060405180830381858888f19350505050158015610f0d573d6000803e3d6000fd5b506009600085815260200190815260200160002060030160009054906101000a900473ffffffffffffffffffffffffffffffffffffffff1673ffffffffffffffffffffffffffffffffffffffff166108fc829081150290604051600060405180830381858888f19350505050158015610f8a573d6000803e3d6000fd5b50346009600086815260200190815260200160002060050181905550816009600086815260200190815260200160002060090160000181905550336009600086815260200190815260200160002060090160010160006101000a81548173ffffffffffffffffffffffffffffffffffffffff021916908373ffffffffffffffffffffffffffffffffffffffff160217905550346009600086815260200190815260200160002060090160020181905550336009600086815260200190815260200160002060030160006101000a81548173ffffffffffffffffffffffffffffffffffffffff021916908373ffffffffffffffffffffffffffffffffffffffff1602179055506009600085815260200190815260200160002060080160008154809291906110b6906137e6565b9190505550505050600160008190555050565b6002600054141561110f576040517f08c379a0000000000000000000000000000000000000000000000000000000008152600401611106906135d2565b60405180910390fd5b60026000819055506009600082815260200190815260200160002060060160019054906101000a900460ff1661117a576040517f08c379a0000000000000000000000000000000000000000000000000000000008152600401611171906135b2565b60405180910390fd5b426009600083815260200190815260200160002060070154106111d2576040517f08c379a00000000000000000000000000000000000000000000000000000000081526004016111c990613612565b60405180910390fd5b3373ffffffffffffffffffffffffffffffffffffffff166009600083815260200190815260200160002060090160010160009054906101000a900473ffffffffffffffffffffffffffffffffffffffff1673ffffffffffffffffffffffffffffffffffffffff1614611279576040517f08c379a000000000000000000000000000000000000000000000000000000000815260040161127090613492565b60405180910390fd5b6000600960008381526020019081526020016000206002015490508273ffffffffffffffffffffffffffffffffffffffff166323b872dd3033846040518463ffffffff1660e01b81526004016112d1939291906133a9565b600060405180830381600087803b1580156112eb57600080fd5b505af11580156112ff573d6000803e3d6000fd5b50505050336009600084815260200190815260200160002060040160006101000a81548173ffffffffffffffffffffffffffffffffffffffff021916908373ffffffffffffffffffffffffffffffffffffffff16021790555060016009600084815260200190815260200160002060060160006101000a81548160ff02191690831515021790555060006009600084815260200190815260200160002060060160016101000a81548160ff0219169083151502179055506113c06002612abd565b5060016000819055505050565b606060006113db6001612aaf565b905060008060005b83811015611484573373ffffffffffffffffffffffffffffffffffffffff166009600060018461141391906136cf565b815260200190815260200160002060040160009054906101000a900473ffffffffffffffffffffffffffffffffffffffff1673ffffffffffffffffffffffffffffffffffffffff1614156114715760018361146e91906136cf565b92505b808061147c906137e6565b9150506113e3565b5060008267ffffffffffffffff8111156114c7577f4e487b7100000000000000000000000000000000000000000000000000000000600052604160045260246000fd5b60405190808252806020026020018201604052801561150057816020015b6114ed612b98565b8152602001906001900390816114e55790505b50905060005b84811015611820573373ffffffffffffffffffffffffffffffffffffffff166009600060018461153691906136cf565b815260200190815260200160002060040160009054906101000a900473ffffffffffffffffffffffffffffffffffffffff1673ffffffffffffffffffffffffffffffffffffffff16141561180d5760006009600060018461159791906136cf565b815260200190815260200160002060000154905060006009600083815260200190815260200160002090508060405180610160016040529081600082015481526020016001820160009054906101000a900473ffffffffffffffffffffffffffffffffffffffff1673ffffffffffffffffffffffffffffffffffffffff1673ffffffffffffffffffffffffffffffffffffffff168152602001600282015481526020016003820160009054906101000a900473ffffffffffffffffffffffffffffffffffffffff1673ffffffffffffffffffffffffffffffffffffffff1673ffffffffffffffffffffffffffffffffffffffff1681526020016004820160009054906101000a900473ffffffffffffffffffffffffffffffffffffffff1673ffffffffffffffffffffffffffffffffffffffff1673ffffffffffffffffffffffffffffffffffffffff168152602001600582015481526020016006820160009054906101000a900460ff161515151581526020016006820160019054906101000a900460ff16151515158152602001600782015481526020016008820154815260200160098201604051806060016040529081600082015481526020016001820160009054906101000a900473ffffffffffffffffffffffffffffffffffffffff1673ffffffffffffffffffffffffffffffffffffffff1673ffffffffffffffffffffffffffffffffffffffff168152602001600282015481525050815250508486815181106117f0577f4e487b7100000000000000000000000000000000000000000000000000000000600052603260045260246000fd5b602002602001018190525060018561180891906136cf565b945050505b8080611818906137e6565b915050611506565b508094505050505090565b606060006118396001612aaf565b90506000808267ffffffffffffffff81111561187e577f4e487b7100000000000000000000000000000000000000000000000000000000600052604160045260246000fd5b6040519080825280602002602001820160405280156118b757816020015b6118a4612b98565b81526020019060019003908161189c5790505b50905060005b83811015611b60576000600960006001846118d891906136cf565b815260200190815260200160002060000154905060006009600083815260200190815260200160002090508060405180610160016040529081600082015481526020016001820160009054906101000a900473ffffffffffffffffffffffffffffffffffffffff1673ffffffffffffffffffffffffffffffffffffffff1673ffffffffffffffffffffffffffffffffffffffff168152602001600282015481526020016003820160009054906101000a900473ffffffffffffffffffffffffffffffffffffffff1673ffffffffffffffffffffffffffffffffffffffff1673ffffffffffffffffffffffffffffffffffffffff1681526020016004820160009054906101000a900473ffffffffffffffffffffffffffffffffffffffff1673ffffffffffffffffffffffffffffffffffffffff1673ffffffffffffffffffffffffffffffffffffffff168152602001600582015481526020016006820160009054906101000a900460ff161515151581526020016006820160019054906101000a900460ff16151515158152602001600782015481526020016008820154815260200160098201604051806060016040529081600082015481526020016001820160009054906101000a900473ffffffffffffffffffffffffffffffffffffffff1673ffffffffffffffffffffffffffffffffffffffff1673ffffffffffffffffffffffffffffffffffffffff16815260200160028201548152505081525050848681518110611b31577f4e487b7100000000000000000000000000000000000000000000000000000000600052603260045260246000fd5b6020026020010181905250600185611b4991906136cf565b945050508080611b58906137e6565b9150506118bd565b5080935050505090565b60008211611bad576040517f08c379a0000000000000000000000000000000000000000000000000000000008152600401611ba4906135f2565b60405180910390fd5b6004543414611bf1576040517f08c379a0000000000000000000000000000000000000000000000000000000008152600401611be890613592565b60405180910390fd5b611bfb6001612abd565b6000611c076001612aaf565b90506000808311905060004290506000611c1f612c60565b8315611c80578281600001818152505089816020019073ffffffffffffffffffffffffffffffffffffffff16908173ffffffffffffffffffffffffffffffffffffffff1681525050868160400181815250508583611c7d91906136cf565b91505b6040518061016001604052808681526020018a73ffffffffffffffffffffffffffffffffffffffff1681526020018981526020018b73ffffffffffffffffffffffffffffffffffffffff168152602001600073ffffffffffffffffffffffffffffffffffffffff16815260200188815260200160001515815260200185151581526020018381526020016000815260200182815250600960008781526020019081526020016000206000820151816000015560208201518160010160006101000a81548173ffffffffffffffffffffffffffffffffffffffff021916908373ffffffffffffffffffffffffffffffffffffffff1602179055506040820151816002015560608201518160030160006101000a81548173ffffffffffffffffffffffffffffffffffffffff021916908373ffffffffffffffffffffffffffffffffffffffff16021790555060808201518160040160006101000a81548173ffffffffffffffffffffffffffffffffffffffff021916908373ffffffffffffffffffffffffffffffffffffffff16021790555060a0820151816005015560c08201518160060160006101000a81548160ff02191690831515021790555060e08201518160060160016101000a81548160ff02191690831515021790555061010082015181600701556101208201518160080155610140820151816009016000820151816000015560208201518160010160006101000a81548173ffffffffffffffffffffffffffffffffffffffff021916908373ffffffffffffffffffffffffffffffffffffffff160217905550604082015181600201555050905050878973ffffffffffffffffffffffffffffffffffffffff16867f045dfa01dcba2b36aba1d3dc4a874f4b0c5d2fbeb8d2c4b34a7d88c8d8f929d18d60008c6000604051611f2b94939291906133e0565b60405180910390a450505050505050505050565b60026000541415611f85576040517f08c379a0000000000000000000000000000000000000000000000000000000008152600401611f7c906135d2565b60405180910390fd5b6002600081905550600060096000838152602001908152602001600020600501549050600060096000848152602001908152602001600020600201549050813414612005576040517f08c379a0000000000000000000000000000000000000000000000000000000008152600401611ffc906134f2565b60405180910390fd5b6009600084815260200190815260200160002060030160009054906101000a900473ffffffffffffffffffffffffffffffffffffffff1673ffffffffffffffffffffffffffffffffffffffff166108fc349081150290604051600060405180830381858888f19350505050158015612081573d6000803e3d6000fd5b508373ffffffffffffffffffffffffffffffffffffffff166323b872dd3033846040518463ffffffff1660e01b81526004016120bf939291906133a9565b600060405180830381600087803b1580156120d957600080fd5b505af11580156120ed573d6000803e3d6000fd5b50505050336009600085815260200190815260200160002060040160006101000a81548173ffffffffffffffffffffffffffffffffffffffff021916908373ffffffffffffffffffffffffffffffffffffffff16021790555060016009600085815260200190815260200160002060060160006101000a81548160ff021916908315150217905550336009600085815260200190815260200160002060030160006101000a81548173ffffffffffffffffffffffffffffffffffffffff021916908373ffffffffffffffffffffffffffffffffffffffff16021790555060006009600085815260200190815260200160002060060160016101000a81548160ff0219169083151502179055506122036002612abd565b600360009054906101000a900473ffffffffffffffffffffffffffffffffffffffff1673ffffffffffffffffffffffffffffffffffffffff166108fc6004549081150290604051600060405180830381858888f1935050505015801561226d573d6000803e3d6000fd5b50505060016000819055505050565b600042905090565b600260005414156122ca576040517f08c379a00000000000000000000000000000000000000000000000000000000081526004016122c1906135d2565b60405180910390fd5b600260008190555060008211612315576040517f08c379a000000000000000000000000000000000000000000000000000000000815260040161230c906135f2565b60405180910390fd5b6004543414612359576040517f08c379a000000000000000000000000000000000000000000000000000000000815260040161235090613592565b60405180910390fd5b600080821190506000429050600061236f612c60565b83156123d0578281600001818152505033816020019073ffffffffffffffffffffffffffffffffffffffff16908173ffffffffffffffffffffffffffffffffffffffff16815250508581604001818152505084836123cd91906136cf565b91505b85600960008981526020019081526020016000206005018190555060006009600089815260200190815260200160002060060160006101000a81548160ff021916908315150217905550836009600089815260200190815260200160002060060160016101000a81548160ff0219169083151502179055508160096000898152602001908152602001600020600701819055506000600960008981526020019081526020016000206008018190555080600960008981526020019081526020016000206009016000820151816000015560208201518160010160006101000a81548173ffffffffffffffffffffffffffffffffffffffff021916908373ffffffffffffffffffffffffffffffffffffffff16021790555060408201518160020155905050505050506001600081905550505050565b606060006125136001612aaf565b905060008060005b838110156125bc573373ffffffffffffffffffffffffffffffffffffffff166009600060018461254b91906136cf565b815260200190815260200160002060030160009054906101000a900473ffffffffffffffffffffffffffffffffffffffff1673ffffffffffffffffffffffffffffffffffffffff1614156125a9576001836125a691906136cf565b92505b80806125b4906137e6565b91505061251b565b5060008267ffffffffffffffff8111156125ff577f4e487b7100000000000000000000000000000000000000000000000000000000600052604160045260246000fd5b60405190808252806020026020018201604052801561263857816020015b612625612b98565b81526020019060019003908161261d5790505b50905060005b84811015612958573373ffffffffffffffffffffffffffffffffffffffff166009600060018461266e91906136cf565b815260200190815260200160002060030160009054906101000a900473ffffffffffffffffffffffffffffffffffffffff1673ffffffffffffffffffffffffffffffffffffffff161415612945576000600960006001846126cf91906136cf565b815260200190815260200160002060000154905060006009600083815260200190815260200160002090508060405180610160016040529081600082015481526020016001820160009054906101000a900473ffffffffffffffffffffffffffffffffffffffff1673ffffffffffffffffffffffffffffffffffffffff1673ffffffffffffffffffffffffffffffffffffffff168152602001600282015481526020016003820160009054906101000a900473ffffffffffffffffffffffffffffffffffffffff1673ffffffffffffffffffffffffffffffffffffffff1673ffffffffffffffffffffffffffffffffffffffff1681526020016004820160009054906101000a900473ffffffffffffffffffffffffffffffffffffffff1673ffffffffffffffffffffffffffffffffffffffff1673ffffffffffffffffffffffffffffffffffffffff168152602001600582015481526020016006820160009054906101000a900460ff161515151581526020016006820160019054906101000a900460ff16151515158152602001600782015481526020016008820154815260200160098201604051806060016040529081600082015481526020016001820160009054906101000a900473ffffffffffffffffffffffffffffffffffffffff1673ffffffffffffffffffffffffffffffffffffffff1673ffffffffffffffffffffffffffffffffffffffff16815260200160028201548152505081525050848681518110612928577f4e487b7100000000000000000000000000000000000000000000000000000000600052603260045260246000fd5b602002602001018190525060018561294091906136cf565b945050505b8080612950906137e6565b91505061263e565b508094505050505090565b600260005414156129a9576040517f08c379a00000000000000000000000000000000000000000000000000000000081526004016129a0906135d2565b60405180910390fd5b60026000819055506129f06040518060400160405280600c81526020017f73757065722073656e646572000000000000000000000000000000000000000081525084612ad3565b600560009054906101000a900473ffffffffffffffffffffffffffffffffffffffff1673ffffffffffffffffffffffffffffffffffffffff166323b872dd8484846040518463ffffffff1660e01b8152600401612a4f939291906133a9565b602060405180830381600087803b158015612a6957600080fd5b505af1158015612a7d573d6000803e3d6000fd5b505050506040513d601f19601f82011682018060405250810190612aa19190612e16565b506001600081905550505050565b600081600001549050919050565b6001816000016000828254019250508190555050565b612b6b8282604051602401612ae9929190613462565b6040516020818303038152906040527f319af333000000000000000000000000000000000000000000000000000000007bffffffffffffffffffffffffffffffffffffffffffffffffffffffff19166020820180517bffffffffffffffffffffffffffffffffffffffffffffffffffffffff8381831617835250505050612b6f565b5050565b60008151905060006a636f6e736f6c652e6c6f679050602083016000808483855afa5050505050565b60405180610160016040528060008152602001600073ffffffffffffffffffffffffffffffffffffffff16815260200160008152602001600073ffffffffffffffffffffffffffffffffffffffff168152602001600073ffffffffffffffffffffffffffffffffffffffff168152602001600081526020016000151581526020016000151581526020016000815260200160008152602001612c38612c60565b81525090565b6040518060600160405280600390602082028036833780820191505090505090565b604051806060016040528060008152602001600073ffffffffffffffffffffffffffffffffffffffff168152602001600081525090565b600081359050612ca681613af6565b92915050565b600081519050612cbb81613b0d565b92915050565b600081359050612cd081613b24565b92915050565b600081519050612ce581613b24565b92915050565b600060208284031215612cfd57600080fd5b6000612d0b84828501612c97565b91505092915050565b600080600060608486031215612d2957600080fd5b6000612d3786828701612c97565b9350506020612d4886828701612c97565b9250506040612d5986828701612cc1565b9150509250925092565b600080600080600060a08688031215612d7b57600080fd5b6000612d8988828901612c97565b9550506020612d9a88828901612c97565b9450506040612dab88828901612cc1565b9350506060612dbc88828901612cc1565b9250506080612dcd88828901612cc1565b9150509295509295909350565b60008060408385031215612ded57600080fd5b6000612dfb85828601612c97565b9250506020612e0c85828601612cc1565b9150509250929050565b600060208284031215612e2857600080fd5b6000612e3684828501612cac565b91505092915050565b600060208284031215612e5157600080fd5b6000612e5f84828501612cc1565b91505092915050565b600060208284031215612e7a57600080fd5b6000612e8884828501612cd6565b91505092915050565b60008060408385031215612ea457600080fd5b6000612eb285828601612cc1565b9250506020612ec385828601612c97565b9150509250929050565b600080600060608486031215612ee257600080fd5b6000612ef086828701612cc1565b9350506020612f0186828701612cc1565b9250506040612f1286828701612cc1565b9150509250925092565b6000612f288383612f5c565b60208301905092915050565b6000612f40838361328f565b6101a08301905092915050565b612f568161376b565b82525050565b612f6581613759565b82525050565b612f7481613759565b82525050565b612f8381613667565b612f8d81846136a2565b9250612f988261364d565b8060005b83811015612fc9578151612fb08782612f1c565b9650612fbb83613688565b925050600181019050612f9c565b505050505050565b6000612fdc82613672565b612fe681856136ad565b9350612ff183613657565b8060005b838110156130225781516130098882612f34565b975061301483613695565b925050600181019050612ff5565b5085935050505092915050565b6130388161377d565b82525050565b6130478161377d565b82525050565b60006130588261367d565b61306281856136be565b93506130728185602086016137b3565b61307b8161385e565b840191505092915050565b60006130936014836136be565b915061309e8261386f565b602082019050919050565b60006130b66019836136be565b91506130c182613898565b602082019050919050565b60006130d9601b836136be565b91506130e4826138c1565b602082019050919050565b60006130fc603f836136be565b9150613107826138ea565b604082019050919050565b600061311f6018836136be565b915061312a82613939565b602082019050919050565b60006131426030836136be565b915061314d82613962565b604082019050919050565b60006131656010836136be565b9150613170826139b1565b602082019050919050565b60006131886016836136be565b9150613193826139da565b602082019050919050565b60006131ab6024836136be565b91506131b682613a03565b604082019050919050565b60006131ce6017836136be565b91506131d982613a52565b602082019050919050565b60006131f1601f836136be565b91506131fc82613a7b565b602082019050919050565b6000613214601c836136be565b915061321f82613aa4565b602082019050919050565b60006132376014836136be565b915061324282613acd565b602082019050919050565b6060820160008201516132636000850182613370565b5060208201516132766020850182612f5c565b5060408201516132896040850182613370565b50505050565b6101a0820160008201516132a66000850182613370565b5060208201516132b96020850182612f5c565b5060408201516132cc6040850182613370565b5060608201516132df6060850182612f4d565b5060808201516132f26080850182612f4d565b5060a082015161330560a0850182613370565b5060c082015161331860c085018261302f565b5060e082015161332b60e085018261302f565b50610100820151613340610100850182613370565b50610120820151613355610120850182613370565b5061014082015161336a61014085018261324d565b50505050565b613379816137a9565b82525050565b613388816137a9565b82525050565b60006020820190506133a36000830184612f6b565b92915050565b60006060820190506133be6000830186612f6b565b6133cb6020830185612f6b565b6133d8604083018461337f565b949350505050565b60006080820190506133f56000830187612f6b565b6134026020830186612f6b565b61340f604083018561337f565b61341c606083018461303e565b95945050505050565b600060608201905061343a6000830184612f7a565b92915050565b6000602082019050818103600083015261345a8184612fd1565b905092915050565b6000604082019050818103600083015261347c818561304d565b905061348b6020830184612f6b565b9392505050565b600060208201905081810360008301526134ab81613086565b9050919050565b600060208201905081810360008301526134cb816130a9565b9050919050565b600060208201905081810360008301526134eb816130cc565b9050919050565b6000602082019050818103600083015261350b816130ef565b9050919050565b6000602082019050818103600083015261352b81613112565b9050919050565b6000602082019050818103600083015261354b81613135565b9050919050565b6000602082019050818103600083015261356b81613158565b9050919050565b6000602082019050818103600083015261358b8161317b565b9050919050565b600060208201905081810360008301526135ab8161319e565b9050919050565b600060208201905081810360008301526135cb816131c1565b9050919050565b600060208201905081810360008301526135eb816131e4565b9050919050565b6000602082019050818103600083015261360b81613207565b9050919050565b6000602082019050818103600083015261362b8161322a565b9050919050565b6000602082019050613647600083018461337f565b92915050565b6000819050919050565b6000819050602082019050919050565b600060039050919050565b600081519050919050565b600081519050919050565b6000602082019050919050565b6000602082019050919050565b600081905092915050565b600082825260208201905092915050565b600082825260208201905092915050565b60006136da826137a9565b91506136e5836137a9565b9250827fffffffffffffffffffffffffffffffffffffffffffffffffffffffffffffffff0382111561371a5761371961382f565b5b828201905092915050565b6000613730826137a9565b915061373b836137a9565b92508282101561374e5761374d61382f565b5b828203905092915050565b600061376482613789565b9050919050565b600061377682613789565b9050919050565b60008115159050919050565b600073ffffffffffffffffffffffffffffffffffffffff82169050919050565b6000819050919050565b60005b838110156137d15780820151818401526020810190506137b6565b838111156137e0576000848401525b50505050565b60006137f1826137a9565b91507fffffffffffffffffffffffffffffffffffffffffffffffffffffffffffffffff8214156138245761382361382f565b5b600182019050919050565b7f4e487b7100000000000000000000000000000000000000000000000000000000600052601160045260246000fd5b6000601f19601f8301169050919050565b7f596f7520617265206e6f7420612077696e6e6572000000000000000000000000600082015250565b7f41756374696f6e2063616e27742062652063616e63656c656400000000000000600082015250565b7f696e6465782073686f756c64206265206c657373207468616e20320000000000600082015250565b7f706c65617365207375626d6974207468652061736b696e67207072696365206960008201527f6e206f7264657220746f20636f6d706c65746520746f20707572636861736500602082015250565b7f4f6e6c79206f776e65722063616e206164642061646d696e0000000000000000600082015250565b7f706c65617365207375626d69742074686520207072696365206d6f726520746860008201527f616e2070726576696f7573652062696400000000000000000000000000000000602082015250565b7f446561646c696e65206578706972656400000000000000000000000000000000600082015250565b7f4f6e6c79206f776e65722063616e20646f207468697300000000000000000000600082015250565b7f7072696365206d75737420626520657175616c20746f206c697374696e67207060008201527f7269636500000000000000000000000000000000000000000000000000000000602082015250565b7f54686973206973206e6f7420666f722041756374696f6e000000000000000000600082015250565b7f5265656e7472616e637947756172643a207265656e7472616e742063616c6c00600082015250565b7f5072696365206d757374206265206174206c6561737420312077656900000000600082015250565b7f41756374696f6e206973206e6f7420656e646564000000000000000000000000600082015250565b613aff81613759565b8114613b0a57600080fd5b50565b613b168161377d565b8114613b2157600080fd5b50565b613b2d816137a9565b8114613b3857600080fd5b5056fea26469706673582212205e4004646716735b7ad55bd4d668c6c1db23c926795592883a9e1172d5d6fb0264736f6c63430008040033",
  "linkReferences": {},
  "deployedLinkReferences": {}
}