{
  "_format": "hh-sol-artifact-1",
  "contractName": "NFTMarket",
  "sourceName": "contracts/NFTMarket.sol",
  "abi": [
    {
      "inputs": [],
      "stateMutability": "nonpayable",
      "type": "constructor"
    },
    {
      "anonymous": false,
      "inputs": [
        {
          "indexed": true,
          "internalType": "uint256",
          "name": "itemId",
          "type": "uint256"
        },
        {
          "indexed": true,
          "internalType": "address",
          "name": "nftContract",
          "type": "address"
        },
        {
          "indexed": true,
          "internalType": "uint256",
          "name": "tokenId",
          "type": "uint256"
        },
        {
          "indexed": false,
          "internalType": "address",
          "name": "seller",
          "type": "address"
        },
        {
          "indexed": false,
          "internalType": "address",
          "name": "owner",
          "type": "address"
        },
        {
          "indexed": false,
          "internalType": "uint256",
          "name": "price",
          "type": "uint256"
        },
        {
          "indexed": false,
          "internalType": "bool",
          "name": "sold",
          "type": "bool"
        }
      ],
      "name": "MarketItemCreated",
      "type": "event"
    },
    {
      "inputs": [
        {
          "internalType": "uint256",
          "name": "itemId",
          "type": "uint256"
        }
      ],
      "name": "cancelListing",
      "outputs": [],
      "stateMutability": "payable",
      "type": "function"
    },
    {
      "inputs": [
        {
          "internalType": "uint256",
          "name": "itemId",
          "type": "uint256"
        }
      ],
      "name": "createAuctionSale",
      "outputs": [],
      "stateMutability": "payable",
      "type": "function"
    },
    {
      "inputs": [
        {
          "internalType": "address",
          "name": "_owner",
          "type": "address"
        },
        {
          "internalType": "address",
          "name": "nftContract",
          "type": "address"
        },
        {
          "internalType": "uint256",
          "name": "tokenId",
          "type": "uint256"
        },
        {
          "internalType": "uint256",
          "name": "price",
          "type": "uint256"
        },
        {
          "internalType": "uint256",
          "name": "auctionInterval",
          "type": "uint256"
        }
      ],
      "name": "createMarketItem",
      "outputs": [],
      "stateMutability": "payable",
      "type": "function"
    },
    {
      "inputs": [
        {
          "internalType": "address",
          "name": "nftContract",
          "type": "address"
        },
        {
          "internalType": "uint256",
          "name": "itemId",
          "type": "uint256"
        }
      ],
      "name": "createMarketSale",
      "outputs": [],
      "stateMutability": "payable",
      "type": "function"
    },
    {
      "inputs": [],
      "name": "fetchAllItems",
      "outputs": [
        {
          "components": [
            {
              "internalType": "uint256",
              "name": "itemId",
              "type": "uint256"
            },
            {
              "internalType": "address",
              "name": "nftContract",
              "type": "address"
            },
            {
              "internalType": "uint256",
              "name": "tokenId",
              "type": "uint256"
            },
            {
              "internalType": "address payable",
              "name": "seller",
              "type": "address"
            },
            {
              "internalType": "address payable",
              "name": "owner",
              "type": "address"
            },
            {
              "internalType": "uint256",
              "name": "price",
              "type": "uint256"
            },
            {
              "internalType": "bool",
              "name": "sold",
              "type": "bool"
            },
            {
              "internalType": "bool",
              "name": "isAuction",
              "type": "bool"
            },
            {
              "internalType": "uint256",
              "name": "deadline",
              "type": "uint256"
            },
            {
              "internalType": "uint256",
              "name": "bidCount",
              "type": "uint256"
            },
            {
              "components": [
                {
                  "internalType": "uint256",
                  "name": "_time",
                  "type": "uint256"
                },
                {
                  "internalType": "address",
                  "name": "bidder",
                  "type": "address"
                },
                {
                  "internalType": "uint256",
                  "name": "bidPrice",
                  "type": "uint256"
                }
              ],
              "internalType": "struct NFTMarket.Bid",
              "name": "bid",
              "type": "tuple"
            }
          ],
          "internalType": "struct NFTMarket.MarketItem[]",
          "name": "",
          "type": "tuple[]"
        }
      ],
      "stateMutability": "view",
      "type": "function"
    },
    {
      "inputs": [],
      "name": "fetchItemsCreated",
      "outputs": [
        {
          "components": [
            {
              "internalType": "uint256",
              "name": "itemId",
              "type": "uint256"
            },
            {
              "internalType": "address",
              "name": "nftContract",
              "type": "address"
            },
            {
              "internalType": "uint256",
              "name": "tokenId",
              "type": "uint256"
            },
            {
              "internalType": "address payable",
              "name": "seller",
              "type": "address"
            },
            {
              "internalType": "address payable",
              "name": "owner",
              "type": "address"
            },
            {
              "internalType": "uint256",
              "name": "price",
              "type": "uint256"
            },
            {
              "internalType": "bool",
              "name": "sold",
              "type": "bool"
            },
            {
              "internalType": "bool",
              "name": "isAuction",
              "type": "bool"
            },
            {
              "internalType": "uint256",
              "name": "deadline",
              "type": "uint256"
            },
            {
              "internalType": "uint256",
              "name": "bidCount",
              "type": "uint256"
            },
            {
              "components": [
                {
                  "internalType": "uint256",
                  "name": "_time",
                  "type": "uint256"
                },
                {
                  "internalType": "address",
                  "name": "bidder",
                  "type": "address"
                },
                {
                  "internalType": "uint256",
                  "name": "bidPrice",
                  "type": "uint256"
                }
              ],
              "internalType": "struct NFTMarket.Bid",
              "name": "bid",
              "type": "tuple"
            }
          ],
          "internalType": "struct NFTMarket.MarketItem[]",
          "name": "",
          "type": "tuple[]"
        }
      ],
      "stateMutability": "view",
      "type": "function"
    },
    {
      "inputs": [],
      "name": "fetchMarketItems",
      "outputs": [
        {
          "components": [
            {
              "internalType": "uint256",
              "name": "itemId",
              "type": "uint256"
            },
            {
              "internalType": "address",
              "name": "nftContract",
              "type": "address"
            },
            {
              "internalType": "uint256",
              "name": "tokenId",
              "type": "uint256"
            },
            {
              "internalType": "address payable",
              "name": "seller",
              "type": "address"
            },
            {
              "internalType": "address payable",
              "name": "owner",
              "type": "address"
            },
            {
              "internalType": "uint256",
              "name": "price",
              "type": "uint256"
            },
            {
              "internalType": "bool",
              "name": "sold",
              "type": "bool"
            },
            {
              "internalType": "bool",
              "name": "isAuction",
              "type": "bool"
            },
            {
              "internalType": "uint256",
              "name": "deadline",
              "type": "uint256"
            },
            {
              "internalType": "uint256",
              "name": "bidCount",
              "type": "uint256"
            },
            {
              "components": [
                {
                  "internalType": "uint256",
                  "name": "_time",
                  "type": "uint256"
                },
                {
                  "internalType": "address",
                  "name": "bidder",
                  "type": "address"
                },
                {
                  "internalType": "uint256",
                  "name": "bidPrice",
                  "type": "uint256"
                }
              ],
              "internalType": "struct NFTMarket.Bid",
              "name": "bid",
              "type": "tuple"
            }
          ],
          "internalType": "struct NFTMarket.MarketItem[]",
          "name": "",
          "type": "tuple[]"
        }
      ],
      "stateMutability": "view",
      "type": "function"
    },
    {
      "inputs": [],
      "name": "fetchMyNFTS",
      "outputs": [
        {
          "components": [
            {
              "internalType": "uint256",
              "name": "itemId",
              "type": "uint256"
            },
            {
              "internalType": "address",
              "name": "nftContract",
              "type": "address"
            },
            {
              "internalType": "uint256",
              "name": "tokenId",
              "type": "uint256"
            },
            {
              "internalType": "address payable",
              "name": "seller",
              "type": "address"
            },
            {
              "internalType": "address payable",
              "name": "owner",
              "type": "address"
            },
            {
              "internalType": "uint256",
              "name": "price",
              "type": "uint256"
            },
            {
              "internalType": "bool",
              "name": "sold",
              "type": "bool"
            },
            {
              "internalType": "bool",
              "name": "isAuction",
              "type": "bool"
            },
            {
              "internalType": "uint256",
              "name": "deadline",
              "type": "uint256"
            },
            {
              "internalType": "uint256",
              "name": "bidCount",
              "type": "uint256"
            },
            {
              "components": [
                {
                  "internalType": "uint256",
                  "name": "_time",
                  "type": "uint256"
                },
                {
                  "internalType": "address",
                  "name": "bidder",
                  "type": "address"
                },
                {
                  "internalType": "uint256",
                  "name": "bidPrice",
                  "type": "uint256"
                }
              ],
              "internalType": "struct NFTMarket.Bid",
              "name": "bid",
              "type": "tuple"
            }
          ],
          "internalType": "struct NFTMarket.MarketItem[]",
          "name": "",
          "type": "tuple[]"
        }
      ],
      "stateMutability": "view",
      "type": "function"
    },
    {
      "inputs": [],
      "name": "getAdmins",
      "outputs": [
        {
          "internalType": "address[3]",
          "name": "",
          "type": "address[3]"
        }
      ],
      "stateMutability": "view",
      "type": "function"
    },
    {
      "inputs": [],
      "name": "getListingPrice",
      "outputs": [
        {
          "internalType": "uint256",
          "name": "",
          "type": "uint256"
        }
      ],
      "stateMutability": "view",
      "type": "function"
    },
    {
      "inputs": [],
      "name": "getTimeStamp",
      "outputs": [
        {
          "internalType": "uint256",
          "name": "",
          "type": "uint256"
        }
      ],
      "stateMutability": "view",
      "type": "function"
    },
    {
      "inputs": [
        {
          "internalType": "address",
          "name": "account",
          "type": "address"
        }
      ],
      "name": "getTokenBalance",
      "outputs": [
        {
          "internalType": "uint256",
          "name": "",
          "type": "uint256"
        }
      ],
      "stateMutability": "view",
      "type": "function"
    },
    {
      "inputs": [
        {
          "internalType": "uint256",
          "name": "itemId",
          "type": "uint256"
        },
        {
          "internalType": "uint256",
          "name": "price",
          "type": "uint256"
        },
        {
          "internalType": "uint256",
          "name": "auctionInterval",
          "type": "uint256"
        }
      ],
      "name": "listItem",
      "outputs": [],
      "stateMutability": "payable",
      "type": "function"
    },
    {
      "inputs": [
        {
          "internalType": "address",
          "name": "nftContract",
          "type": "address"
        },
        {
          "internalType": "uint256",
          "name": "itemId",
          "type": "uint256"
        }
      ],
      "name": "requestAuctionSale",
      "outputs": [],
      "stateMutability": "payable",
      "type": "function"
    },
    {
      "inputs": [
        {
          "internalType": "uint256",
          "name": "index",
          "type": "uint256"
        },
        {
          "internalType": "address",
          "name": "admin",
          "type": "address"
        }
      ],
      "name": "setAdmin",
      "outputs": [],
      "stateMutability": "payable",
      "type": "function"
    },
    {
      "inputs": [
        {
          "internalType": "address",
          "name": "sender",
          "type": "address"
        },
        {
          "internalType": "address",
          "name": "recept",
          "type": "address"
        },
        {
          "internalType": "uint256",
          "name": "amount",
          "type": "uint256"
        }
      ],
      "name": "transferToken",
      "outputs": [],
      "stateMutability": "payable",
      "type": "function"
    }
  ],
  "bytecode": "0x60806040526658d15e1762800060045534801561001b57600080fd5b50600160008190555033600360006101000a81548173ffffffffffffffffffffffffffffffffffffffff021916908373ffffffffffffffffffffffffffffffffffffffff160217905550600360009054906101000a900473ffffffffffffffffffffffffffffffffffffffff1660066000600381106100c3577f4e487b7100000000000000000000000000000000000000000000000000000000600052603260045260246000fd5b0160006101000a81548173ffffffffffffffffffffffffffffffffffffffff021916908373ffffffffffffffffffffffffffffffffffffffff160217905550613b71806101116000396000f3fe6080604052600436106100f35760003560e01c80637dc5dfcf1161008a578063da235b2211610059578063da235b22146102b4578063ec16b94a146102df578063f064c32e146102fb578063f5537ede14610326576100f3565b80637dc5dfcf1461022657806397598cc314610251578063b8ba1e6e1461027c578063c23b139e14610298576100f3565b806331ae450b116100c657806331ae450b146101865780633aecd0e3146101b15780633e52f34c146101ee5780637b321b011461020a576100f3565b80630f08efe0146100f857806312e8558514610123578063142e8e251461014e578063305a67a81461016a575b600080fd5b34801561010457600080fd5b5061010d610342565b60405161011a9190613440565b60405180910390f35b34801561012f57600080fd5b5061013861071c565b6040516101459190613632565b60405180910390f35b61016860048036038101906101639190612e91565b610726565b005b610184600480360381019061017f9190612e3f565b6108d9565b005b34801561019257600080fd5b5061019b610c25565b6040516101a89190613425565b60405180910390f35b3480156101bd57600080fd5b506101d860048036038101906101d39190612ceb565b610ca6565b6040516101e59190613632565b60405180910390f35b61020860048036038101906102039190612e3f565b610d5a565b005b610224600480360381019061021f9190612dda565b6110c9565b005b34801561023257600080fd5b5061023b6113cd565b6040516102489190613440565b60405180910390f35b34801561025d57600080fd5b5061026661182b565b6040516102739190613440565b60405180910390f35b61029660048036038101906102919190612d63565b611b6a565b005b6102b260048036038101906102ad9190612dda565b611f3f565b005b3480156102c057600080fd5b506102c961227c565b6040516102d69190613632565b60405180910390f35b6102f960048036038101906102f49190612ecd565b612284565b005b34801561030757600080fd5b50610310612505565b60405161031d9190613440565b60405180910390f35b610340600480360381019061033b9190612d14565b612963565b005b606060006103506001612aaf565b9050600061035e6002612aaf565b6103686001612aaf565b6103729190613725565b90506000808267ffffffffffffffff8111156103b7577f4e487b7100000000000000000000000000000000000000000000000000000000600052604160045260246000fd5b6040519080825280602002602001820160405280156103f057816020015b6103dd612b98565b8152602001906001900390816103d55790505b50905060005b8481101561071157600073ffffffffffffffffffffffffffffffffffffffff166009600060018461042791906136cf565b815260200190815260200160002060040160009054906101000a900473ffffffffffffffffffffffffffffffffffffffff1673ffffffffffffffffffffffffffffffffffffffff1614156106fe5760006009600060018461048891906136cf565b815260200190815260200160002060000154905060006009600083815260200190815260200160002090508060405180610160016040529081600082015481526020016001820160009054906101000a900473ffffffffffffffffffffffffffffffffffffffff1673ffffffffffffffffffffffffffffffffffffffff1673ffffffffffffffffffffffffffffffffffffffff168152602001600282015481526020016003820160009054906101000a900473ffffffffffffffffffffffffffffffffffffffff1673ffffffffffffffffffffffffffffffffffffffff1673ffffffffffffffffffffffffffffffffffffffff1681526020016004820160009054906101000a900473ffffffffffffffffffffffffffffffffffffffff1673ffffffffffffffffffffffffffffffffffffffff1673ffffffffffffffffffffffffffffffffffffffff168152602001600582015481526020016006820160009054906101000a900460ff161515151581526020016006820160019054906101000a900460ff16151515158152602001600782015481526020016008820154815260200160098201604051806060016040529081600082015481526020016001820160009054906101000a900473ffffffffffffffffffffffffffffffffffffffff1673ffffffffffffffffffffffffffffffffffffffff1673ffffffffffffffffffffffffffffffffffffffff168152602001600282015481525050815250508486815181106106e1577f4e487b7100000000000000000000000000000000000000000000000000000000600052603260045260246000fd5b60200260200101819052506001856106f991906136cf565b945050505b8080610709906137e6565b9150506103f6565b508094505050505090565b6000600454905090565b6002600054141561076c576040517f08c379a0000000000000000000000000000000000000000000000000000000008152600401610763906135d2565b60405180910390fd5b6002600081905550600282106107b7576040517f08c379a00000000000000000000000000000000000000000000000000000000081526004016107ae906134d2565b60405180910390fd5b600360009054906101000a900473ffffffffffffffffffffffffffffffffffffffff1673ffffffffffffffffffffffffffffffffffffffff163373ffffffffffffffffffffffffffffffffffffffff1614610847576040517f08c379a000000000000000000000000000000000000000000000000000000000815260040161083e90613512565b60405180910390fd5b80600660018461085791906136cf565b6003811061088e577f4e487b7100000000000000000000000000000000000000000000000000000000600052603260045260246000fd5b0160006101000a81548173ffffffffffffffffffffffffffffffffffffffff021916908373ffffffffffffffffffffffffffffffffffffffff16021790555060016000819055505050565b6002600054141561091f576040517f08c379a0000000000000000000000000000000000000000000000000000000008152600401610916906135d2565b60405180910390fd5b60026000819055503373ffffffffffffffffffffffffffffffffffffffff166009600083815260200190815260200160002060030160009054906101000a900473ffffffffffffffffffffffffffffffffffffffff1673ffffffffffffffffffffffffffffffffffffffff161480610a1e57503373ffffffffffffffffffffffffffffffffffffffff1660066000600381106109e4577f4e487b7100000000000000000000000000000000000000000000000000000000600052603260045260246000fd5b0160009054906101000a900473ffffffffffffffffffffffffffffffffffffffff1673ffffffffffffffffffffffffffffffffffffffff16145b80610ab057503373ffffffffffffffffffffffffffffffffffffffff166006600160038110610a76577f4e487b7100000000000000000000000000000000000000000000000000000000600052603260045260246000fd5b0160009054906101000a900473ffffffffffffffffffffffffffffffffffffffff1673ffffffffffffffffffffffffffffffffffffffff16145b80610b4257503373ffffffffffffffffffffffffffffffffffffffff166006600260038110610b08577f4e487b7100000000000000000000000000000000000000000000000000000000600052603260045260246000fd5b0160009054906101000a900473ffffffffffffffffffffffffffffffffffffffff1673ffffffffffffffffffffffffffffffffffffffff16145b610b81576040517f08c379a0000000000000000000000000000000000000000000000000000000008152600401610b7890613572565b60405180910390fd5b600015156009600083815260200190815260200160002060060160019054906101000a900460ff16151514610beb576040517f08c379a0000000000000000000000000000000000000000000000000000000008152600401610be2906134b2565b60405180910390fd5b60016009600083815260200190815260200160002060060160006101000a81548160ff021916908315150217905550600160008190555050565b610c2d612c3e565b6006600380602002604051908101604052809291908260038015610c9c576020028201915b8160009054906101000a900473ffffffffffffffffffffffffffffffffffffffff1673ffffffffffffffffffffffffffffffffffffffff1681526020019060010190808311610c52575b5050505050905090565b6000600560009054906101000a900473ffffffffffffffffffffffffffffffffffffffff1673ffffffffffffffffffffffffffffffffffffffff166370a08231836040518263ffffffff1660e01b8152600401610d03919061338e565b60206040518083038186803b158015610d1b57600080fd5b505afa158015610d2f573d6000803e3d6000fd5b505050506040513d601f19601f82011682018060405250810190610d539190612e68565b9050919050565b60026000541415610da0576040517f08c379a0000000000000000000000000000000000000000000000000000000008152600401610d97906135d2565b60405180910390fd5b6002600081905550600060096000838152602001908152602001600020600901600201549050803411610e08576040517f08c379a0000000000000000000000000000000000000000000000000000000008152600401610dff90613532565b60405180910390fd5b600042905060096000848152602001908152602001600020600701548110610e65576040517f08c379a0000000000000000000000000000000000000000000000000000000008152600401610e5c90613552565b60405180910390fd5b60008234610e739190613725565b90506009600085815260200190815260200160002060090160010160009054906101000a900473ffffffffffffffffffffffffffffffffffffffff1673ffffffffffffffffffffffffffffffffffffffff166108fc60096000878152602001908152602001600020600901600201549081150290604051600060405180830381858888f19350505050158015610f0d573d6000803e3d6000fd5b506009600085815260200190815260200160002060030160009054906101000a900473ffffffffffffffffffffffffffffffffffffffff1673ffffffffffffffffffffffffffffffffffffffff166108fc829081150290604051600060405180830381858888f19350505050158015610f8a573d6000803e3d6000fd5b50346009600086815260200190815260200160002060050181905550816009600086815260200190815260200160002060090160000181905550336009600086815260200190815260200160002060090160010160006101000a81548173ffffffffffffffffffffffffffffffffffffffff021916908373ffffffffffffffffffffffffffffffffffffffff160217905550346009600086815260200190815260200160002060090160020181905550336009600086815260200190815260200160002060030160006101000a81548173ffffffffffffffffffffffffffffffffffffffff021916908373ffffffffffffffffffffffffffffffffffffffff1602179055506009600085815260200190815260200160002060080160008154809291906110b6906137e6565b9190505550505050600160008190555050565b6002600054141561110f576040517f08c379a0000000000000000000000000000000000000000000000000000000008152600401611106906135d2565b60405180910390fd5b60026000819055506009600082815260200190815260200160002060060160019054906101000a900460ff1661117a576040517f08c379a0000000000000000000000000000000000000000000000000000000008152600401611171906135b2565b60405180910390fd5b426009600083815260200190815260200160002060070154106111d2576040517f08c379a00000000000000000000000000000000000000000000000000000000081526004016111c990613612565b60405180910390fd5b3373ffffffffffffffffffffffffffffffffffffffff166009600083815260200190815260200160002060090160010160009054906101000a900473ffffffffffffffffffffffffffffffffffffffff1673ffffffffffffffffffffffffffffffffffffffff1614611279576040517f08c379a000000000000000000000000000000000000000000000000000000000815260040161127090613492565b60405180910390fd5b6000600960008381526020019081526020016000206002015490508273ffffffffffffffffffffffffffffffffffffffff166323b872dd3033846040518463ffffffff1660e01b81526004016112d1939291906133a9565b600060405180830381600087803b1580156112eb57600080fd5b505af11580156112ff573d6000803e3d6000fd5b50505050336009600084815260200190815260200160002060040160006101000a81548173ffffffffffffffffffffffffffffffffffffffff021916908373ffffffffffffffffffffffffffffffffffffffff16021790555060016009600084815260200190815260200160002060060160006101000a81548160ff02191690831515021790555060006009600084815260200190815260200160002060060160016101000a81548160ff0219169083151502179055506113c06002612abd565b5060016000819055505050565b606060006113db6001612aaf565b905060008060005b83811015611484573373ffffffffffffffffffffffffffffffffffffffff166009600060018461141391906136cf565b815260200190815260200160002060040160009054906101000a900473ffffffffffffffffffffffffffffffffffffffff1673ffffffffffffffffffffffffffffffffffffffff1614156114715760018361146e91906136cf565b92505b808061147c906137e6565b9150506113e3565b5060008267ffffffffffffffff8111156114c7577f4e487b7100000000000000000000000000000000000000000000000000000000600052604160045260246000fd5b60405190808252806020026020018201604052801561150057816020015b6114ed612b98565b8152602001906001900390816114e55790505b50905060005b84811015611820573373ffffffffffffffffffffffffffffffffffffffff166009600060018461153691906136cf565b815260200190815260200160002060040160009054906101000a900473ffffffffffffffffffffffffffffffffffffffff1673ffffffffffffffffffffffffffffffffffffffff16141561180d5760006009600060018461159791906136cf565b815260200190815260200160002060000154905060006009600083815260200190815260200160002090508060405180610160016040529081600082015481526020016001820160009054906101000a900473ffffffffffffffffffffffffffffffffffffffff1673ffffffffffffffffffffffffffffffffffffffff1673ffffffffffffffffffffffffffffffffffffffff168152602001600282015481526020016003820160009054906101000a900473ffffffffffffffffffffffffffffffffffffffff1673ffffffffffffffffffffffffffffffffffffffff1673ffffffffffffffffffffffffffffffffffffffff1681526020016004820160009054906101000a900473ffffffffffffffffffffffffffffffffffffffff1673ffffffffffffffffffffffffffffffffffffffff1673ffffffffffffffffffffffffffffffffffffffff168152602001600582015481526020016006820160009054906101000a900460ff161515151581526020016006820160019054906101000a900460ff16151515158152602001600782015481526020016008820154815260200160098201604051806060016040529081600082015481526020016001820160009054906101000a900473ffffffffffffffffffffffffffffffffffffffff1673ffffffffffffffffffffffffffffffffffffffff1673ffffffffffffffffffffffffffffffffffffffff168152602001600282015481525050815250508486815181106117f0577f4e487b7100000000000000000000000000000000000000000000000000000000600052603260045260246000fd5b602002602001018190525060018561180891906136cf565b945050505b8080611818906137e6565b915050611506565b508094505050505090565b606060006118396001612aaf565b90506000808267ffffffffffffffff81111561187e577f4e487b7100000000000000000000000000000000000000000000000000000000600052604160045260246000fd5b6040519080825280602002602001820160405280156118b757816020015b6118a4612b98565b81526020019060019003908161189c5790505b50905060005b83811015611b60576000600960006001846118d891906136cf565b815260200190815260200160002060000154905060006009600083815260200190815260200160002090508060405180610160016040529081600082015481526020016001820160009054906101000a900473ffffffffffffffffffffffffffffffffffffffff1673ffffffffffffffffffffffffffffffffffffffff1673ffffffffffffffffffffffffffffffffffffffff168152602001600282015481526020016003820160009054906101000a900473ffffffffffffffffffffffffffffffffffffffff1673ffffffffffffffffffffffffffffffffffffffff1673ffffffffffffffffffffffffffffffffffffffff1681526020016004820160009054906101000a900473ffffffffffffffffffffffffffffffffffffffff1673ffffffffffffffffffffffffffffffffffffffff1673ffffffffffffffffffffffffffffffffffffffff168152602001600582015481526020016006820160009054906101000a900460ff161515151581526020016006820160019054906101000a900460ff16151515158152602001600782015481526020016008820154815260200160098201604051806060016040529081600082015481526020016001820160009054906101000a900473ffffffffffffffffffffffffffffffffffffffff1673ffffffffffffffffffffffffffffffffffffffff1673ffffffffffffffffffffffffffffffffffffffff16815260200160028201548152505081525050848681518110611b31577f4e487b7100000000000000000000000000000000000000000000000000000000600052603260045260246000fd5b6020026020010181905250600185611b4991906136cf565b945050508080611b58906137e6565b9150506118bd565b5080935050505090565b60008211611bad576040517f08c379a0000000000000000000000000000000000000000000000000000000008152600401611ba4906135f2565b60405180910390fd5b6004543414611bf1576040517f08c379a0000000000000000000000000000000000000000000000000000000008152600401611be890613592565b60405180910390fd5b611bfb6001612abd565b6000611c076001612aaf565b90506000808311905060004290506000611c1f612c60565b8315611c80578281600001818152505089816020019073ffffffffffffffffffffffffffffffffffffffff16908173ffffffffffffffffffffffffffffffffffffffff1681525050868160400181815250508583611c7d91906136cf565b91505b6040518061016001604052808681526020018a73ffffffffffffffffffffffffffffffffffffffff1681526020018981526020018b73ffffffffffffffffffffffffffffffffffffffff168152602001600073ffffffffffffffffffffffffffffffffffffffff16815260200188815260200160001515815260200185151581526020018381526020016000815260200182815250600960008781526020019081526020016000206000820151816000015560208201518160010160006101000a81548173ffffffffffffffffffffffffffffffffffffffff021916908373ffffffffffffffffffffffffffffffffffffffff1602179055506040820151816002015560608201518160030160006101000a81548173ffffffffffffffffffffffffffffffffffffffff021916908373ffffffffffffffffffffffffffffffffffffffff16021790555060808201518160040160006101000a81548173ffffffffffffffffffffffffffffffffffffffff021916908373ffffffffffffffffffffffffffffffffffffffff16021790555060a0820151816005015560c08201518160060160006101000a81548160ff02191690831515021790555060e08201518160060160016101000a81548160ff02191690831515021790555061010082015181600701556101208201518160080155610140820151816009016000820151816000015560208201518160010160006101000a81548173ffffffffffffffffffffffffffffffffffffffff021916908373ffffffffffffffffffffffffffffffffffffffff160217905550604082015181600201555050905050878973ffffffffffffffffffffffffffffffffffffffff16867f045dfa01dcba2b36aba1d3dc4a874f4b0c5d2fbeb8d2c4b34a7d88c8d8f929d18d60008c6000604051611f2b94939291906133e0565b60405180910390a450505050505050505050565b60026000541415611f85576040517f08c379a0000000000000000000000000000000000000000000000000000000008152600401611f7c906135d2565b60405180910390fd5b6002600081905550600060096000838152602001908152602001600020600501549050600060096000848152602001908152602001600020600201549050813414612005576040517f08c379a0000000000000000000000000000000000000000000000000000000008152600401611ffc906134f2565b60405180910390fd5b6009600084815260200190815260200160002060030160009054906101000a900473ffffffffffffffffffffffffffffffffffffffff1673ffffffffffffffffffffffffffffffffffffffff166108fc349081150290604051600060405180830381858888f19350505050158015612081573d6000803e3d6000fd5b508373ffffffffffffffffffffffffffffffffffffffff166323b872dd3033846040518463ffffffff1660e01b81526004016120bf939291906133a9565b600060405180830381600087803b1580156120d957600080fd5b505af11580156120ed573d6000803e3d6000fd5b50505050336009600085815260200190815260200160002060040160006101000a81548173ffffffffffffffffffffffffffffffffffffffff021916908373ffffffffffffffffffffffffffffffffffffffff16021790555060016009600085815260200190815260200160002060060160006101000a81548160ff021916908315150217905550336009600085815260200190815260200160002060030160006101000a81548173ffffffffffffffffffffffffffffffffffffffff021916908373ffffffffffffffffffffffffffffffffffffffff16021790555060006009600085815260200190815260200160002060060160016101000a81548160ff0219169083151502179055506122036002612abd565b600360009054906101000a900473ffffffffffffffffffffffffffffffffffffffff1673ffffffffffffffffffffffffffffffffffffffff166108fc6004549081150290604051600060405180830381858888f1935050505015801561226d573d6000803e3d6000fd5b50505060016000819055505050565b600042905090565b600260005414156122ca576040517f08c379a00000000000000000000000000000000000000000000000000000000081526004016122c1906135d2565b60405180910390fd5b600260008190555060008211612315576040517f08c379a000000000000000000000000000000000000000000000000000000000815260040161230c906135f2565b60405180910390fd5b6004543414612359576040517f08c379a000000000000000000000000000000000000000000000000000000000815260040161235090613592565b60405180910390fd5b600080821190506000429050600061236f612c60565b83156123d0578281600001818152505033816020019073ffffffffffffffffffffffffffffffffffffffff16908173ffffffffffffffffffffffffffffffffffffffff16815250508581604001818152505084836123cd91906136cf565b91505b85600960008981526020019081526020016000206005018190555060006009600089815260200190815260200160002060060160006101000a81548160ff021916908315150217905550836009600089815260200190815260200160002060060160016101000a81548160ff0219169083151502179055508160096000898152602001908152602001600020600701819055506000600960008981526020019081526020016000206008018190555080600960008981526020019081526020016000206009016000820151816000015560208201518160010160006101000a81548173ffffffffffffffffffffffffffffffffffffffff021916908373ffffffffffffffffffffffffffffffffffffffff16021790555060408201518160020155905050505050506001600081905550505050565b606060006125136001612aaf565b905060008060005b838110156125bc573373ffffffffffffffffffffffffffffffffffffffff166009600060018461254b91906136cf565b815260200190815260200160002060030160009054906101000a900473ffffffffffffffffffffffffffffffffffffffff1673ffffffffffffffffffffffffffffffffffffffff1614156125a9576001836125a691906136cf565b92505b80806125b4906137e6565b91505061251b565b5060008267ffffffffffffffff8111156125ff577f4e487b7100000000000000000000000000000000000000000000000000000000600052604160045260246000fd5b60405190808252806020026020018201604052801561263857816020015b612625612b98565b81526020019060019003908161261d5790505b50905060005b84811015612958573373ffffffffffffffffffffffffffffffffffffffff166009600060018461266e91906136cf565b815260200190815260200160002060030160009054906101000a900473ffffffffffffffffffffffffffffffffffffffff1673ffffffffffffffffffffffffffffffffffffffff161415612945576000600960006001846126cf91906136cf565b815260200190815260200160002060000154905060006009600083815260200190815260200160002090508060405180610160016040529081600082015481526020016001820160009054906101000a900473ffffffffffffffffffffffffffffffffffffffff1673ffffffffffffffffffffffffffffffffffffffff1673ffffffffffffffffffffffffffffffffffffffff168152602001600282015481526020016003820160009054906101000a900473ffffffffffffffffffffffffffffffffffffffff1673ffffffffffffffffffffffffffffffffffffffff1673ffffffffffffffffffffffffffffffffffffffff1681526020016004820160009054906101000a900473ffffffffffffffffffffffffffffffffffffffff1673ffffffffffffffffffffffffffffffffffffffff1673ffffffffffffffffffffffffffffffffffffffff168152602001600582015481526020016006820160009054906101000a900460ff161515151581526020016006820160019054906101000a900460ff16151515158152602001600782015481526020016008820154815260200160098201604051806060016040529081600082015481526020016001820160009054906101000a900473ffffffffffffffffffffffffffffffffffffffff1673ffffffffffffffffffffffffffffffffffffffff1673ffffffffffffffffffffffffffffffffffffffff16815260200160028201548152505081525050848681518110612928577f4e487b7100000000000000000000000000000000000000000000000000000000600052603260045260246000fd5b602002602001018190525060018561294091906136cf565b945050505b8080612950906137e6565b91505061263e565b508094505050505090565b600260005414156129a9576040517f08c379a00000000000000000000000000000000000000000000000000000000081526004016129a0906135d2565b60405180910390fd5b60026000819055506129f06040518060400160405280600c81526020017f73757065722073656e646572000000000000000000000000000000000000000081525084612ad3565b600560009054906101000a900473ffffffffffffffffffffffffffffffffffffffff1673ffffffffffffffffffffffffffffffffffffffff166323b872dd8484846040518463ffffffff1660e01b8152600401612a4f939291906133a9565b602060405180830381600087803b158015612a6957600080fd5b505af1158015612a7d573d6000803e3d6000fd5b505050506040513d601f19601f82011682018060405250810190612aa19190612e16565b506001600081905550505050565b600081600001549050919050565b6001816000016000828254019250508190555050565b612b6b8282604051602401612ae9929190613462565b6040516020818303038152906040527f319af333000000000000000000000000000000000000000000000000000000007bffffffffffffffffffffffffffffffffffffffffffffffffffffffff19166020820180517bffffffffffffffffffffffffffffffffffffffffffffffffffffffff8381831617835250505050612b6f565b5050565b60008151905060006a636f6e736f6c652e6c6f679050602083016000808483855afa5050505050565b60405180610160016040528060008152602001600073ffffffffffffffffffffffffffffffffffffffff16815260200160008152602001600073ffffffffffffffffffffffffffffffffffffffff168152602001600073ffffffffffffffffffffffffffffffffffffffff168152602001600081526020016000151581526020016000151581526020016000815260200160008152602001612c38612c60565b81525090565b6040518060600160405280600390602082028036833780820191505090505090565b604051806060016040528060008152602001600073ffffffffffffffffffffffffffffffffffffffff168152602001600081525090565b600081359050612ca681613af6565b92915050565b600081519050612cbb81613b0d565b92915050565b600081359050612cd081613b24565b92915050565b600081519050612ce581613b24565b92915050565b600060208284031215612cfd57600080fd5b6000612d0b84828501612c97565b91505092915050565b600080600060608486031215612d2957600080fd5b6000612d3786828701612c97565b9350506020612d4886828701612c97565b9250506040612d5986828701612cc1565b9150509250925092565b600080600080600060a08688031215612d7b57600080fd5b6000612d8988828901612c97565b9550506020612d9a88828901612c97565b9450506040612dab88828901612cc1565b9350506060612dbc88828901612cc1565b9250506080612dcd88828901612cc1565b9150509295509295909350565b60008060408385031215612ded57600080fd5b6000612dfb85828601612c97565b9250506020612e0c85828601612cc1565b9150509250929050565b600060208284031215612e2857600080fd5b6000612e3684828501612cac565b91505092915050565b600060208284031215612e5157600080fd5b6000612e5f84828501612cc1565b91505092915050565b600060208284031215612e7a57600080fd5b6000612e8884828501612cd6565b91505092915050565b60008060408385031215612ea457600080fd5b6000612eb285828601612cc1565b9250506020612ec385828601612c97565b9150509250929050565b600080600060608486031215612ee257600080fd5b6000612ef086828701612cc1565b9350506020612f0186828701612cc1565b9250506040612f1286828701612cc1565b9150509250925092565b6000612f288383612f5c565b60208301905092915050565b6000612f40838361328f565b6101a08301905092915050565b612f568161376b565b82525050565b612f6581613759565b82525050565b612f7481613759565b82525050565b612f8381613667565b612f8d81846136a2565b9250612f988261364d565b8060005b83811015612fc9578151612fb08782612f1c565b9650612fbb83613688565b925050600181019050612f9c565b505050505050565b6000612fdc82613672565b612fe681856136ad565b9350612ff183613657565b8060005b838110156130225781516130098882612f34565b975061301483613695565b925050600181019050612ff5565b5085935050505092915050565b6130388161377d565b82525050565b6130478161377d565b82525050565b60006130588261367d565b61306281856136be565b93506130728185602086016137b3565b61307b8161385e565b840191505092915050565b60006130936014836136be565b915061309e8261386f565b602082019050919050565b60006130b66019836136be565b91506130c182613898565b602082019050919050565b60006130d9601b836136be565b91506130e4826138c1565b602082019050919050565b60006130fc603f836136be565b9150613107826138ea565b604082019050919050565b600061311f6018836136be565b915061312a82613939565b602082019050919050565b60006131426030836136be565b915061314d82613962565b604082019050919050565b60006131656010836136be565b9150613170826139b1565b602082019050919050565b60006131886016836136be565b9150613193826139da565b602082019050919050565b60006131ab6024836136be565b91506131b682613a03565b604082019050919050565b60006131ce6017836136be565b91506131d982613a52565b602082019050919050565b60006131f1601f836136be565b91506131fc82613a7b565b602082019050919050565b6000613214601c836136be565b915061321f82613aa4565b602082019050919050565b60006132376014836136be565b915061324282613acd565b602082019050919050565b6060820160008201516132636000850182613370565b5060208201516132766020850182612f5c565b5060408201516132896040850182613370565b50505050565b6101a0820160008201516132a66000850182613370565b5060208201516132b96020850182612f5c565b5060408201516132cc6040850182613370565b5060608201516132df6060850182612f4d565b5060808201516132f26080850182612f4d565b5060a082015161330560a0850182613370565b5060c082015161331860c085018261302f565b5060e082015161332b60e085018261302f565b50610100820151613340610100850182613370565b50610120820151613355610120850182613370565b5061014082015161336a61014085018261324d565b50505050565b613379816137a9565b82525050565b613388816137a9565b82525050565b60006020820190506133a36000830184612f6b565b92915050565b60006060820190506133be6000830186612f6b565b6133cb6020830185612f6b565b6133d8604083018461337f565b949350505050565b60006080820190506133f56000830187612f6b565b6134026020830186612f6b565b61340f604083018561337f565b61341c606083018461303e565b95945050505050565b600060608201905061343a6000830184612f7a565b92915050565b6000602082019050818103600083015261345a8184612fd1565b905092915050565b6000604082019050818103600083015261347c818561304d565b905061348b6020830184612f6b565b9392505050565b600060208201905081810360008301526134ab81613086565b9050919050565b600060208201905081810360008301526134cb816130a9565b9050919050565b600060208201905081810360008301526134eb816130cc565b9050919050565b6000602082019050818103600083015261350b816130ef565b9050919050565b6000602082019050818103600083015261352b81613112565b9050919050565b6000602082019050818103600083015261354b81613135565b9050919050565b6000602082019050818103600083015261356b81613158565b9050919050565b6000602082019050818103600083015261358b8161317b565b9050919050565b600060208201905081810360008301526135ab8161319e565b9050919050565b600060208201905081810360008301526135cb816131c1565b9050919050565b600060208201905081810360008301526135eb816131e4565b9050919050565b6000602082019050818103600083015261360b81613207565b9050919050565b6000602082019050818103600083015261362b8161322a565b9050919050565b6000602082019050613647600083018461337f565b92915050565b6000819050919050565b6000819050602082019050919050565b600060039050919050565b600081519050919050565b600081519050919050565b6000602082019050919050565b6000602082019050919050565b600081905092915050565b600082825260208201905092915050565b600082825260208201905092915050565b60006136da826137a9565b91506136e5836137a9565b9250827fffffffffffffffffffffffffffffffffffffffffffffffffffffffffffffffff0382111561371a5761371961382f565b5b828201905092915050565b6000613730826137a9565b915061373b836137a9565b92508282101561374e5761374d61382f565b5b828203905092915050565b600061376482613789565b9050919050565b600061377682613789565b9050919050565b60008115159050919050565b600073ffffffffffffffffffffffffffffffffffffffff82169050919050565b6000819050919050565b60005b838110156137d15780820151818401526020810190506137b6565b838111156137e0576000848401525b50505050565b60006137f1826137a9565b91507fffffffffffffffffffffffffffffffffffffffffffffffffffffffffffffffff8214156138245761382361382f565b5b600182019050919050565b7f4e487b7100000000000000000000000000000000000000000000000000000000600052601160045260246000fd5b6000601f19601f8301169050919050565b7f596f7520617265206e6f7420612077696e6e6572000000000000000000000000600082015250565b7f41756374696f6e2063616e27742062652063616e63656c656400000000000000600082015250565b7f696e6465782073686f756c64206265206c657373207468616e20320000000000600082015250565b7f706c65617365207375626d6974207468652061736b696e67207072696365206960008201527f6e206f7264657220746f20636f6d706c65746520746f20707572636861736500602082015250565b7f4f6e6c79206f776e65722063616e206164642061646d696e0000000000000000600082015250565b7f706c65617365207375626d69742074686520207072696365206d6f726520746860008201527f616e2070726576696f7573652062696400000000000000000000000000000000602082015250565b7f446561646c696e65206578706972656400000000000000000000000000000000600082015250565b7f4f6e6c79206f776e65722063616e20646f207468697300000000000000000000600082015250565b7f7072696365206d75737420626520657175616c20746f206c697374696e67207060008201527f7269636500000000000000000000000000000000000000000000000000000000602082015250565b7f54686973206973206e6f7420666f722041756374696f6e000000000000000000600082015250565b7f5265656e7472616e637947756172643a207265656e7472616e742063616c6c00600082015250565b7f5072696365206d757374206265206174206c6561737420312077656900000000600082015250565b7f41756374696f6e206973206e6f7420656e646564000000000000000000000000600082015250565b613aff81613759565b8114613b0a57600080fd5b50565b613b168161377d565b8114613b2157600080fd5b50565b613b2d816137a9565b8114613b3857600080fd5b5056fea26469706673582212205e4004646716735b7ad55bd4d668c6c1db23c926795592883a9e1172d5d6fb0264736f6c63430008040033",
  "linkReferences": {},
  "deployedLinkReferences": {}
}